{
  "address": "0x9EFB207BEd2DC096f9f16DDE96b66bf902D9B466",
  "abi": [
    {
      "inputs": [
        {
          "internalType": "address",
          "name": "_VRFCoordinator",
          "type": "address"
        },
        {
          "internalType": "address",
          "name": "_LinkToken",
          "type": "address"
        },
        {
          "internalType": "bytes32",
          "name": "_keyHash",
          "type": "bytes32"
        },
        {
          "internalType": "uint256",
          "name": "_fee",
          "type": "uint256"
        }
      ],
      "stateMutability": "nonpayable",
      "type": "constructor"
    },
    {
      "anonymous": false,
      "inputs": [
        {
          "indexed": true,
          "internalType": "address",
          "name": "owner",
          "type": "address"
        },
        {
          "indexed": true,
          "internalType": "address",
          "name": "approved",
          "type": "address"
        },
        {
          "indexed": true,
          "internalType": "uint256",
          "name": "tokenId",
          "type": "uint256"
        }
      ],
      "name": "Approval",
      "type": "event"
    },
    {
      "anonymous": false,
      "inputs": [
        {
          "indexed": true,
          "internalType": "address",
          "name": "owner",
          "type": "address"
        },
        {
          "indexed": true,
          "internalType": "address",
          "name": "operator",
          "type": "address"
        },
        {
          "indexed": false,
          "internalType": "bool",
          "name": "approved",
          "type": "bool"
        }
      ],
      "name": "ApprovalForAll",
      "type": "event"
    },
    {
      "anonymous": false,
      "inputs": [
        {
          "indexed": true,
          "internalType": "uint256",
          "name": "tokenId",
          "type": "uint256"
        },
        {
          "indexed": false,
          "internalType": "string",
          "name": "tokenURI",
          "type": "string"
        }
      ],
      "name": "CreatedRandomSVG",
      "type": "event"
    },
    {
      "anonymous": false,
      "inputs": [
        {
          "indexed": true,
          "internalType": "uint256",
          "name": "tokenId",
          "type": "uint256"
        },
        {
          "indexed": false,
          "internalType": "uint256",
          "name": "randomNumber",
          "type": "uint256"
        }
      ],
      "name": "CreatedUnfinishedRandomSVG",
      "type": "event"
    },
    {
      "anonymous": false,
      "inputs": [
        {
          "indexed": true,
          "internalType": "address",
          "name": "from",
          "type": "address"
        },
        {
          "indexed": true,
          "internalType": "address",
          "name": "to",
          "type": "address"
        },
        {
          "indexed": true,
          "internalType": "uint256",
          "name": "tokenId",
          "type": "uint256"
        }
      ],
      "name": "Transfer",
      "type": "event"
    },
    {
      "anonymous": false,
      "inputs": [
        {
          "indexed": true,
          "internalType": "bytes32",
          "name": "requestId",
          "type": "bytes32"
        },
        {
          "indexed": true,
          "internalType": "uint256",
          "name": "tokenId",
          "type": "uint256"
        }
      ],
      "name": "requestedRandomSVG",
      "type": "event"
    },
    {
      "inputs": [
        {
          "internalType": "address",
          "name": "to",
          "type": "address"
        },
        {
          "internalType": "uint256",
          "name": "tokenId",
          "type": "uint256"
        }
      ],
      "name": "approve",
      "outputs": [],
      "stateMutability": "nonpayable",
      "type": "function"
    },
    {
      "inputs": [
        {
          "internalType": "address",
          "name": "owner",
          "type": "address"
        }
      ],
      "name": "balanceOf",
      "outputs": [
        {
          "internalType": "uint256",
          "name": "",
          "type": "uint256"
        }
      ],
      "stateMutability": "view",
      "type": "function"
    },
    {
      "inputs": [
        {
          "internalType": "uint256",
          "name": "",
          "type": "uint256"
        }
      ],
      "name": "colors",
      "outputs": [
        {
          "internalType": "string",
          "name": "",
          "type": "string"
        }
      ],
      "stateMutability": "view",
      "type": "function"
    },
    {
      "inputs": [],
      "name": "create",
      "outputs": [
        {
          "internalType": "bytes32",
          "name": "requestId",
          "type": "bytes32"
        }
      ],
      "stateMutability": "nonpayable",
      "type": "function"
    },
    {
      "inputs": [
        {
          "internalType": "uint256",
          "name": "tokenId",
          "type": "uint256"
        }
      ],
      "name": "finishMint",
      "outputs": [],
      "stateMutability": "nonpayable",
      "type": "function"
    },
    {
      "inputs": [
        {
          "internalType": "string",
          "name": "_imageURI",
          "type": "string"
        }
      ],
      "name": "formatTokenURI",
      "outputs": [
        {
          "internalType": "string",
          "name": "",
          "type": "string"
        }
      ],
      "stateMutability": "pure",
      "type": "function"
    },
    {
      "inputs": [
        {
          "internalType": "uint256",
          "name": "_randomNumber",
          "type": "uint256"
        }
      ],
      "name": "generatePath",
      "outputs": [
        {
          "internalType": "string",
          "name": "pathSVG",
          "type": "string"
        }
      ],
      "stateMutability": "view",
      "type": "function"
    },
    {
      "inputs": [
        {
          "internalType": "uint256",
          "name": "_randomNumber",
          "type": "uint256"
        }
      ],
      "name": "generatePathCommand",
      "outputs": [
        {
          "internalType": "string",
          "name": "pathCommand",
          "type": "string"
        }
      ],
      "stateMutability": "view",
      "type": "function"
    },
    {
      "inputs": [
        {
          "internalType": "uint256",
          "name": "_randomNumber",
          "type": "uint256"
        }
      ],
      "name": "generateSVG",
      "outputs": [
        {
          "internalType": "string",
          "name": "finalSVG",
          "type": "string"
        }
      ],
      "stateMutability": "view",
      "type": "function"
    },
    {
      "inputs": [
        {
          "internalType": "uint256",
          "name": "tokenId",
          "type": "uint256"
        }
      ],
      "name": "getApproved",
      "outputs": [
        {
          "internalType": "address",
          "name": "",
          "type": "address"
        }
      ],
      "stateMutability": "view",
      "type": "function"
    },
    {
      "inputs": [
        {
          "internalType": "address",
          "name": "owner",
          "type": "address"
        },
        {
          "internalType": "address",
          "name": "operator",
          "type": "address"
        }
      ],
      "name": "isApprovedForAll",
      "outputs": [
        {
          "internalType": "bool",
          "name": "",
          "type": "bool"
        }
      ],
      "stateMutability": "view",
      "type": "function"
    },
    {
      "inputs": [],
      "name": "maxNumberOfPathCommands",
      "outputs": [
        {
          "internalType": "uint256",
          "name": "",
          "type": "uint256"
        }
      ],
      "stateMutability": "view",
      "type": "function"
    },
    {
      "inputs": [],
      "name": "maxNumberOfPaths",
      "outputs": [
        {
          "internalType": "uint256",
          "name": "",
          "type": "uint256"
        }
      ],
      "stateMutability": "view",
      "type": "function"
    },
    {
      "inputs": [],
      "name": "name",
      "outputs": [
        {
          "internalType": "string",
          "name": "",
          "type": "string"
        }
      ],
      "stateMutability": "view",
      "type": "function"
    },
    {
      "inputs": [
        {
          "internalType": "uint256",
          "name": "tokenId",
          "type": "uint256"
        }
      ],
      "name": "ownerOf",
      "outputs": [
        {
          "internalType": "address",
          "name": "",
          "type": "address"
        }
      ],
      "stateMutability": "view",
      "type": "function"
    },
    {
      "inputs": [
        {
          "internalType": "uint256",
          "name": "",
          "type": "uint256"
        }
      ],
      "name": "pathCommands",
      "outputs": [
        {
          "internalType": "string",
          "name": "",
          "type": "string"
        }
      ],
      "stateMutability": "view",
      "type": "function"
    },
    {
      "inputs": [
        {
          "internalType": "bytes32",
          "name": "requestId",
          "type": "bytes32"
        },
        {
          "internalType": "uint256",
          "name": "randomness",
          "type": "uint256"
        }
      ],
      "name": "rawFulfillRandomness",
      "outputs": [],
      "stateMutability": "nonpayable",
      "type": "function"
    },
    {
      "inputs": [
        {
          "internalType": "bytes32",
          "name": "",
          "type": "bytes32"
        }
      ],
      "name": "requestIdToSender",
      "outputs": [
        {
          "internalType": "address",
          "name": "",
          "type": "address"
        }
      ],
      "stateMutability": "view",
      "type": "function"
    },
    {
      "inputs": [
        {
          "internalType": "bytes32",
          "name": "",
          "type": "bytes32"
        }
      ],
      "name": "requestIdToTokenId",
      "outputs": [
        {
          "internalType": "uint256",
          "name": "",
          "type": "uint256"
        }
      ],
      "stateMutability": "view",
      "type": "function"
    },
    {
      "inputs": [
        {
          "internalType": "address",
          "name": "from",
          "type": "address"
        },
        {
          "internalType": "address",
          "name": "to",
          "type": "address"
        },
        {
          "internalType": "uint256",
          "name": "tokenId",
          "type": "uint256"
        }
      ],
      "name": "safeTransferFrom",
      "outputs": [],
      "stateMutability": "nonpayable",
      "type": "function"
    },
    {
      "inputs": [
        {
          "internalType": "address",
          "name": "from",
          "type": "address"
        },
        {
          "internalType": "address",
          "name": "to",
          "type": "address"
        },
        {
          "internalType": "uint256",
          "name": "tokenId",
          "type": "uint256"
        },
        {
          "internalType": "bytes",
          "name": "_data",
          "type": "bytes"
        }
      ],
      "name": "safeTransferFrom",
      "outputs": [],
      "stateMutability": "nonpayable",
      "type": "function"
    },
    {
      "inputs": [
        {
          "internalType": "address",
          "name": "operator",
          "type": "address"
        },
        {
          "internalType": "bool",
          "name": "approved",
          "type": "bool"
        }
      ],
      "name": "setApprovalForAll",
      "outputs": [],
      "stateMutability": "nonpayable",
      "type": "function"
    },
    {
      "inputs": [],
      "name": "size",
      "outputs": [
        {
          "internalType": "uint256",
          "name": "",
          "type": "uint256"
        }
      ],
      "stateMutability": "view",
      "type": "function"
    },
    {
      "inputs": [
        {
          "internalType": "bytes4",
          "name": "interfaceId",
          "type": "bytes4"
        }
      ],
      "name": "supportsInterface",
      "outputs": [
        {
          "internalType": "bool",
          "name": "",
          "type": "bool"
        }
      ],
      "stateMutability": "view",
      "type": "function"
    },
    {
      "inputs": [
        {
          "internalType": "string",
          "name": "_svg",
          "type": "string"
        }
      ],
      "name": "svgToImageURI",
      "outputs": [
        {
          "internalType": "string",
          "name": "",
          "type": "string"
        }
      ],
      "stateMutability": "pure",
      "type": "function"
    },
    {
      "inputs": [],
      "name": "symbol",
      "outputs": [
        {
          "internalType": "string",
          "name": "",
          "type": "string"
        }
      ],
      "stateMutability": "view",
      "type": "function"
    },
    {
      "inputs": [],
      "name": "tokenCounter",
      "outputs": [
        {
          "internalType": "uint256",
          "name": "",
          "type": "uint256"
        }
      ],
      "stateMutability": "view",
      "type": "function"
    },
    {
      "inputs": [
        {
          "internalType": "uint256",
          "name": "",
          "type": "uint256"
        }
      ],
      "name": "tokenIdToRandomNumber",
      "outputs": [
        {
          "internalType": "uint256",
          "name": "",
          "type": "uint256"
        }
      ],
      "stateMutability": "view",
      "type": "function"
    },
    {
      "inputs": [
        {
          "internalType": "uint256",
          "name": "tokenId",
          "type": "uint256"
        }
      ],
      "name": "tokenURI",
      "outputs": [
        {
          "internalType": "string",
          "name": "",
          "type": "string"
        }
      ],
      "stateMutability": "view",
      "type": "function"
    },
    {
      "inputs": [
        {
          "internalType": "address",
          "name": "from",
          "type": "address"
        },
        {
          "internalType": "address",
          "name": "to",
          "type": "address"
        },
        {
          "internalType": "uint256",
          "name": "tokenId",
          "type": "uint256"
        }
      ],
      "name": "transferFrom",
      "outputs": [],
      "stateMutability": "nonpayable",
      "type": "function"
    }
  ],
  "transactionHash": "0x748edebef545b46bb02eea3ef17190a6b211ead4e044f53a541ff00534c2d7f6",
  "args": [
    "0xb3dCcb4Cf7a26f6cf6B120Cf5A73875B7BBc655B",
    "0x01BE23585060835E02B77ef475b0Cc51aA1e0709",
    "0x2ed0feb3e7fd2022120aa84fab1945545a9f2ffc9076fd6156fa96eaff4c1311",
    "1000000000000000000"
  ],
  "numDeployments": 6,
  "solcInputHash": "ac484d06008f210d06c4afd71e8b31c6",
  "bytecode": "0x60c06040523480156200001157600080fd5b5060405162004f9d38038062004f9d833981810160405281019062000037919062000658565b83836040518060400160405280600981526020017f52616e646f6d53564700000000000000000000000000000000000000000000008152506040518060400160405280600481526020017f724e4654000000000000000000000000000000000000000000000000000000008152508160009080519060200190620000bd9291906200038c565b508060019080519060200190620000d69291906200038c565b5050508173ffffffffffffffffffffffffffffffffffffffff1660a08173ffffffffffffffffffffffffffffffffffffffff16815250508073ffffffffffffffffffffffffffffffffffffffff1660808173ffffffffffffffffffffffffffffffffffffffff1681525050505080600a81905550816009819055506000600881905550600a600b819055506005600c819055506101f4600d8190555060405180604001604052806040518060400160405280600181526020017f4d0000000000000000000000000000000000000000000000000000000000000081525081526020016040518060400160405280600181526020017f4c00000000000000000000000000000000000000000000000000000000000000815250815250600e906002620002039291906200041d565b506040518060c001604052806040518060400160405280600381526020017f726564000000000000000000000000000000000000000000000000000000000081525081526020016040518060400160405280600481526020017f626c75650000000000000000000000000000000000000000000000000000000081525081526020016040518060400160405280600581526020017f677265656e00000000000000000000000000000000000000000000000000000081525081526020016040518060400160405280600681526020017f79656c6c6f77000000000000000000000000000000000000000000000000000081525081526020016040518060400160405280600581526020017f626c61636b00000000000000000000000000000000000000000000000000000081525081526020016040518060400160405280600581526020017f7768697465000000000000000000000000000000000000000000000000000000815250815250600f9060066200038192919062000484565b50505050506200072f565b8280546200039a90620006f9565b90600052602060002090601f016020900481019282620003be57600085556200040a565b82601f10620003d957805160ff19168380011785556200040a565b828001600101855582156200040a579182015b8281111562000409578251825591602001919060010190620003ec565b5b509050620004199190620004eb565b5090565b82805482825590600052602060002090810192821562000471579160200282015b82811115620004705782518290805190602001906200045f9291906200038c565b50916020019190600101906200043e565b5b5090506200048091906200050a565b5090565b828054828255906000526020600020908101928215620004d8579160200282015b82811115620004d7578251829080519060200190620004c69291906200038c565b5091602001919060010190620004a5565b5b509050620004e791906200050a565b5090565b5b8082111562000506576000816000905550600101620004ec565b5090565b5b808211156200052e576000818162000524919062000532565b506001016200050b565b5090565b5080546200054090620006f9565b6000825580601f1062000554575062000575565b601f016020900490600052602060002090810190620005749190620004eb565b5b50565b600080fd5b600073ffffffffffffffffffffffffffffffffffffffff82169050919050565b6000620005aa826200057d565b9050919050565b620005bc816200059d565b8114620005c857600080fd5b50565b600081519050620005dc81620005b1565b92915050565b6000819050919050565b620005f781620005e2565b81146200060357600080fd5b50565b6000815190506200061781620005ec565b92915050565b6000819050919050565b62000632816200061d565b81146200063e57600080fd5b50565b600081519050620006528162000627565b92915050565b6000806000806080858703121562000675576200067462000578565b5b60006200068587828801620005cb565b94505060206200069887828801620005cb565b9350506040620006ab8782880162000606565b9250506060620006be8782880162000641565b91505092959194509250565b7f4e487b7100000000000000000000000000000000000000000000000000000000600052602260045260246000fd5b600060028204905060018216806200071257607f821691505b60208210811415620007295762000728620006ca565b5b50919050565b60805160a0516148416200075c6000396000818161112001526124410152600061240501526148416000f3fe608060405234801561001057600080fd5b50600436106101da5760003560e01c806371aee19311610104578063b88d4fde116100a2578063c87b56dd11610071578063c87b56dd146105d9578063d082e38114610609578063e985e9c514610627578063efc81a8c14610657576101da565b8063b88d4fde1461053f578063bd11f69d1461055b578063c21bf36f1461058b578063c68b49d1146105a9576101da565b8063955968d4116100de578063955968d4146104a557806395d89b41146104d55780639c1cd795146104f3578063a22cb46514610523576101da565b806371aee1931461043b57806394985ddd1461046b578063949d225d14610487576101da565b806330d871c61161017c578063624194c71161014b578063624194c71461038f5780636352211e146103ab5780636dcee4ca146103db57806370a082311461040b576101da565b806330d871c6146102f557806333af59891461032557806342842e0e1461035557806348e896ab14610371576101da565b8063095ea7b3116101b8578063095ea7b31461025d578063219c0eee1461027957806322881f88146102a957806323b872dd146102d9576101da565b806301ffc9a7146101df57806306fdde031461020f578063081812fc1461022d575b600080fd5b6101f960048036038101906101f49190612c1a565b610675565b6040516102069190612c62565b60405180910390f35b610217610757565b6040516102249190612d16565b60405180910390f35b61024760048036038101906102429190612d6e565b6107e9565b6040516102549190612ddc565b60405180910390f35b61027760048036038101906102729190612e23565b61086e565b005b610293600480360381019061028e9190612e99565b610986565b6040516102a09190612ddc565b60405180910390f35b6102c360048036038101906102be9190612e99565b6109b9565b6040516102d09190612ed5565b60405180910390f35b6102f360048036038101906102ee9190612ef0565b6109d1565b005b61030f600480360381019061030a9190613078565b610a31565b60405161031c9190612d16565b60405180910390f35b61033f600480360381019061033a9190612d6e565b610aca565b60405161034c9190612d16565b60405180910390f35b61036f600480360381019061036a9190612ef0565b610c96565b005b610379610cb6565b6040516103869190612ed5565b60405180910390f35b6103a960048036038101906103a49190612d6e565b610cbc565b005b6103c560048036038101906103c09190612d6e565b610e25565b6040516103d29190612ddc565b60405180910390f35b6103f560048036038101906103f09190612d6e565b610ed7565b6040516104029190612d16565b60405180910390f35b610425600480360381019061042091906130c1565b610fd9565b6040516104329190612ed5565b60405180910390f35b61045560048036038101906104509190613078565b611091565b6040516104629190612d16565b60405180910390f35b610485600480360381019061048091906130ee565b61111e565b005b61048f6111ba565b60405161049c9190612ed5565b60405180910390f35b6104bf60048036038101906104ba9190612d6e565b6111c0565b6040516104cc9190612d16565b60405180910390f35b6104dd61126c565b6040516104ea9190612d16565b60405180910390f35b61050d60048036038101906105089190612d6e565b6112fe565b60405161051a9190612ed5565b60405180910390f35b61053d6004803603810190610538919061315a565b611316565b005b6105596004803603810190610554919061323b565b61132c565b005b61057560048036038101906105709190612d6e565b61138e565b6040516105829190612d16565b60405180910390f35b61059361143a565b6040516105a09190612ed5565b60405180910390f35b6105c360048036038101906105be9190612d6e565b611440565b6040516105d09190612d16565b60405180910390f35b6105f360048036038101906105ee9190612d6e565b6115cd565b6040516106009190612d16565b60405180910390f35b61061161171f565b60405161061e9190612ed5565b60405180910390f35b610641600480360381019061063c91906132be565b611725565b60405161064e9190612c62565b60405180910390f35b61065f6117b9565b60405161066c919061330d565b60405180910390f35b60007f80ac58cd000000000000000000000000000000000000000000000000000000007bffffffffffffffffffffffffffffffffffffffffffffffffffffffff1916827bffffffffffffffffffffffffffffffffffffffffffffffffffffffff1916148061074057507f5b5e139f000000000000000000000000000000000000000000000000000000007bffffffffffffffffffffffffffffffffffffffffffffffffffffffff1916827bffffffffffffffffffffffffffffffffffffffffffffffffffffffff1916145b80610750575061074f82611883565b5b9050919050565b60606000805461076690613357565b80601f016020809104026020016040519081016040528092919081815260200182805461079290613357565b80156107df5780601f106107b4576101008083540402835291602001916107df565b820191906000526020600020905b8154815290600101906020018083116107c257829003601f168201915b5050505050905090565b60006107f4826118ed565b610833576040517f08c379a000000000000000000000000000000000000000000000000000000000815260040161082a906133fb565b60405180910390fd5b6004600083815260200190815260200160002060009054906101000a900473ffffffffffffffffffffffffffffffffffffffff169050919050565b600061087982610e25565b90508073ffffffffffffffffffffffffffffffffffffffff168373ffffffffffffffffffffffffffffffffffffffff1614156108ea576040517f08c379a00000000000000000000000000000000000000000000000000000000081526004016108e19061348d565b60405180910390fd5b8073ffffffffffffffffffffffffffffffffffffffff16610909611959565b73ffffffffffffffffffffffffffffffffffffffff161480610938575061093781610932611959565b611725565b5b610977576040517f08c379a000000000000000000000000000000000000000000000000000000000815260040161096e9061351f565b60405180910390fd5b6109818383611961565b505050565b60106020528060005260406000206000915054906101000a900473ffffffffffffffffffffffffffffffffffffffff1681565b60126020528060005260406000206000915090505481565b6109e26109dc611959565b82611a1a565b610a21576040517f08c379a0000000000000000000000000000000000000000000000000000000008152600401610a18906135b1565b60405180910390fd5b610a2c838383611af8565b505050565b606060006040518060400160405280601a81526020017f646174613a696d6167652f7376672b786d6c3b6261736536342c00000000000081525090506000610a9784604051602001610a83919061360d565b604051602081830303815290604052611d54565b905060008282604051602001610aae929190613624565b6040516020818303038152906040529050809350505050919050565b606060006001600c5484610ade9190613677565b610ae891906136d7565b90506040518060400160405280600981526020017f3c7061746820643d270000000000000000000000000000000000000000000000815250915060005b81811015610bb05760008482600d54610b3e91906136d7565b604051602001610b4f92919061372d565b6040516020818303038152906040528051906020012060001c90506000610b7582611440565b90508481604051602001610b8a929190613624565b604051602081830303815290604052945050508080610ba890613756565b915050610b25565b506000600f808054905085610bc59190613677565b81548110610bd657610bd561379f565b5b906000526020600020018054610beb90613357565b80601f0160208091040260200160405190810160405280929190818152602001828054610c1790613357565b8015610c645780601f10610c3957610100808354040283529160200191610c64565b820191906000526020600020905b815481529060010190602001808311610c4757829003601f168201915b505050505090508281604051602001610c7e929190613866565b60405160208183030381529060405292505050919050565b610cb18383836040518060200160405280600081525061132c565b505050565b600c5481565b6000610cc7826115cd565b511115610d09576040517f08c379a0000000000000000000000000000000000000000000000000000000008152600401610d00906138ec565b60405180910390fd5b8060085411610d4d576040517f08c379a0000000000000000000000000000000000000000000000000000000008152600401610d4490613958565b60405180910390fd5b6000601160008381526020019081526020016000205411610da3576040517f08c379a0000000000000000000000000000000000000000000000000000000008152600401610d9a906139ea565b60405180910390fd5b6000601160008381526020019081526020016000205490506000610dc682610ed7565b90506000610dd382610a31565b9050610de784610de283611091565b611ecd565b837f15a6487b7915a7116ce2a61d43b17e9b47484b1931f3c79f2f3d139b307b389383604051610e179190612d16565b60405180910390a250505050565b6000806002600084815260200190815260200160002060009054906101000a900473ffffffffffffffffffffffffffffffffffffffff169050600073ffffffffffffffffffffffffffffffffffffffff168173ffffffffffffffffffffffffffffffffffffffff161415610ece576040517f08c379a0000000000000000000000000000000000000000000000000000000008152600401610ec590613a7c565b60405180910390fd5b80915050919050565b606060006001600b5484610eeb9190613677565b610ef591906136d7565b9050610f02600d54611f41565b610f0d600d54611f41565b604051602001610f1e929190613ba6565b604051602081830303815290604052915060005b81811015610fb05760008482604051602001610f4f92919061372d565b6040516020818303038152906040528051906020012060001c90506000610f7582610aca565b90508481604051602001610f8a929190613624565b604051602081830303815290604052945050508080610fa890613756565b915050610f32565b5081604051602001610fc29190613c37565b604051602081830303815290604052915050919050565b60008073ffffffffffffffffffffffffffffffffffffffff168273ffffffffffffffffffffffffffffffffffffffff16141561104a576040517f08c379a000000000000000000000000000000000000000000000000000000000815260040161104190613ccb565b60405180910390fd5b600360008373ffffffffffffffffffffffffffffffffffffffff1673ffffffffffffffffffffffffffffffffffffffff168152602001908152602001600020549050919050565b606060006040518060400160405280601d81526020017f646174613a6170706c69636174696f6e2f6a736f6e3b6261736536342c0000008152509050806110f6846040516020016110e29190613e1b565b604051602081830303815290604052611d54565b604051602001611107929190613624565b604051602081830303815290604052915050919050565b7f000000000000000000000000000000000000000000000000000000000000000073ffffffffffffffffffffffffffffffffffffffff163373ffffffffffffffffffffffffffffffffffffffff16146111ac576040517f08c379a00000000000000000000000000000000000000000000000000000000081526004016111a390613e94565b60405180910390fd5b6111b682826120ca565b5050565b600d5481565b600e81815481106111d057600080fd5b9060005260206000200160009150905080546111eb90613357565b80601f016020809104026020016040519081016040528092919081815260200182805461121790613357565b80156112645780601f1061123957610100808354040283529160200191611264565b820191906000526020600020905b81548152906001019060200180831161124757829003601f168201915b505050505081565b60606001805461127b90613357565b80601f01602080910402602001604051908101604052809291908181526020018280546112a790613357565b80156112f45780601f106112c9576101008083540402835291602001916112f4565b820191906000526020600020905b8154815290600101906020018083116112d757829003601f168201915b5050505050905090565b60116020528060005260406000206000915090505481565b611328611321611959565b838361217a565b5050565b61133d611337611959565b83611a1a565b61137c576040517f08c379a0000000000000000000000000000000000000000000000000000000008152600401611373906135b1565b60405180910390fd5b611388848484846122e7565b50505050565b600f818154811061139e57600080fd5b9060005260206000200160009150905080546113b990613357565b80601f01602080910402602001604051908101604052809291908181526020018280546113e590613357565b80156114325780601f1061140757610100808354040283529160200191611432565b820191906000526020600020905b81548152906001019060200180831161141557829003601f168201915b505050505081565b600b5481565b6060600e8080549050836114549190613677565b815481106114655761146461379f565b5b90600052602060002001805461147a90613357565b80601f01602080910402602001604051908101604052809291908181526020018280546114a690613357565b80156114f35780601f106114c8576101008083540402835291602001916114f3565b820191906000526020600020905b8154815290600101906020018083116114d657829003601f168201915b505050505090506000600d54836002600d5461150f9190613eb4565b60405160200161152092919061372d565b6040516020818303038152906040528051906020012060001c6115439190613677565b90506000600d54846003600d5461155a9190613eb4565b60405160200161156b92919061372d565b6040516020818303038152906040528051906020012060001c61158e9190613677565b90508261159a83611f41565b6115a383611f41565b6040516020016115b593929190613f5a565b60405160208183030381529060405292505050919050565b60606115d8826118ed565b611617576040517f08c379a000000000000000000000000000000000000000000000000000000000815260040161160e90614013565b60405180910390fd5b600060066000848152602001908152602001600020805461163790613357565b80601f016020809104026020016040519081016040528092919081815260200182805461166390613357565b80156116b05780601f10611685576101008083540402835291602001916116b0565b820191906000526020600020905b81548152906001019060200180831161169357829003601f168201915b5050505050905060006116c1612343565b90506000815114156116d757819250505061171a565b60008251111561170c5780826040516020016116f4929190613624565b6040516020818303038152906040529250505061171a565b6117158461235a565b925050505b919050565b60085481565b6000600560008473ffffffffffffffffffffffffffffffffffffffff1673ffffffffffffffffffffffffffffffffffffffff16815260200190815260200160002060008373ffffffffffffffffffffffffffffffffffffffff1673ffffffffffffffffffffffffffffffffffffffff16815260200190815260200160002060009054906101000a900460ff16905092915050565b60006117c9600954600a54612401565b9050336010600083815260200190815260200160002060006101000a81548173ffffffffffffffffffffffffffffffffffffffff021916908373ffffffffffffffffffffffffffffffffffffffff16021790555060006008549050806012600084815260200190815260200160002081905550600160085461184b91906136d7565b60088190555080827fb97343f1f2afc4959f818046ccae28fd7b05fcd2b7a7dc651cbb52a096cae03560405160405180910390a35090565b60007f01ffc9a7000000000000000000000000000000000000000000000000000000007bffffffffffffffffffffffffffffffffffffffffffffffffffffffff1916827bffffffffffffffffffffffffffffffffffffffffffffffffffffffff1916149050919050565b60008073ffffffffffffffffffffffffffffffffffffffff166002600084815260200190815260200160002060009054906101000a900473ffffffffffffffffffffffffffffffffffffffff1673ffffffffffffffffffffffffffffffffffffffff1614159050919050565b600033905090565b816004600083815260200190815260200160002060006101000a81548173ffffffffffffffffffffffffffffffffffffffff021916908373ffffffffffffffffffffffffffffffffffffffff160217905550808273ffffffffffffffffffffffffffffffffffffffff166119d483610e25565b73ffffffffffffffffffffffffffffffffffffffff167f8c5be1e5ebec7d5bd14f71427d1e84f3dd0314c0f7b2291e5b200ac8c7c3b92560405160405180910390a45050565b6000611a25826118ed565b611a64576040517f08c379a0000000000000000000000000000000000000000000000000000000008152600401611a5b906140a5565b60405180910390fd5b6000611a6f83610e25565b90508073ffffffffffffffffffffffffffffffffffffffff168473ffffffffffffffffffffffffffffffffffffffff161480611ade57508373ffffffffffffffffffffffffffffffffffffffff16611ac6846107e9565b73ffffffffffffffffffffffffffffffffffffffff16145b80611aef5750611aee8185611725565b5b91505092915050565b8273ffffffffffffffffffffffffffffffffffffffff16611b1882610e25565b73ffffffffffffffffffffffffffffffffffffffff1614611b6e576040517f08c379a0000000000000000000000000000000000000000000000000000000008152600401611b6590614137565b60405180910390fd5b600073ffffffffffffffffffffffffffffffffffffffff168273ffffffffffffffffffffffffffffffffffffffff161415611bde576040517f08c379a0000000000000000000000000000000000000000000000000000000008152600401611bd5906141c9565b60405180910390fd5b611be9838383612554565b611bf4600082611961565b6001600360008573ffffffffffffffffffffffffffffffffffffffff1673ffffffffffffffffffffffffffffffffffffffff1681526020019081526020016000206000828254611c4491906141e9565b925050819055506001600360008473ffffffffffffffffffffffffffffffffffffffff1673ffffffffffffffffffffffffffffffffffffffff1681526020019081526020016000206000828254611c9b91906136d7565b92505081905550816002600083815260200190815260200160002060006101000a81548173ffffffffffffffffffffffffffffffffffffffff021916908373ffffffffffffffffffffffffffffffffffffffff160217905550808273ffffffffffffffffffffffffffffffffffffffff168473ffffffffffffffffffffffffffffffffffffffff167fddf252ad1be2c89b69c2b068fc378daa952ba7f163c4a11628f55a4df523b3ef60405160405180910390a4505050565b6060600082511415611d7757604051806020016040528060008152509050611ec8565b60006040518060600160405280604081526020016147cc6040913990506000600360028551611da691906136d7565b611db0919061421d565b6004611dbc9190613eb4565b90506000602082611dcd91906136d7565b67ffffffffffffffff811115611de657611de5612f4d565b5b6040519080825280601f01601f191660200182016040528015611e185781602001600182028036833780820191505090505b509050818152600183018586518101602084015b81831015611e87576003830192508251603f8160121c168501518253600182019150603f81600c1c168501518253600182019150603f8160061c168501518253600182019150603f8116850151825360018201915050611e2c565b600389510660018114611ea15760028114611eb157611ebc565b613d3d60f01b6002830352611ebc565b603d60f81b60018303525b50505050508093505050505b919050565b611ed6826118ed565b611f15576040517f08c379a0000000000000000000000000000000000000000000000000000000008152600401611f0c906142c0565b60405180910390fd5b80600660008481526020019081526020016000209080519060200190611f3c929190612b0b565b505050565b60606000821415611f89576040518060400160405280600181526020017f300000000000000000000000000000000000000000000000000000000000000081525090506120c5565b600082905060005b60008214611fbb578080611fa490613756565b915050600a82611fb4919061421d565b9150611f91565b60008167ffffffffffffffff811115611fd757611fd6612f4d565b5b6040519080825280601f01601f1916602001820160405280156120095781602001600182028036833780820191505090505b50905060008290505b600086146120bd5760018161202791906141e9565b90506000600a8088612039919061421d565b6120439190613eb4565b8761204e91906141e9565b603061205a91906142ed565b905060008160f81b9050808484815181106120785761207761379f565b5b60200101907effffffffffffffffffffffffffffffffffffffffffffffffffffffffffffff1916908160001a905350600a886120b4919061421d565b97505050612012565b819450505050505b919050565b60006010600084815260200190815260200160002060009054906101000a900473ffffffffffffffffffffffffffffffffffffffff1690506000601260008581526020019081526020016000205490506121248282612559565b826011600083815260200190815260200160002081905550807faad5362ce528ed941024b95d4c18dfd49b8503e1f586a5c353631d98c2af41b78460405161216c9190612ed5565b60405180910390a250505050565b8173ffffffffffffffffffffffffffffffffffffffff168373ffffffffffffffffffffffffffffffffffffffff1614156121e9576040517f08c379a00000000000000000000000000000000000000000000000000000000081526004016121e090614370565b60405180910390fd5b80600560008573ffffffffffffffffffffffffffffffffffffffff1673ffffffffffffffffffffffffffffffffffffffff16815260200190815260200160002060008473ffffffffffffffffffffffffffffffffffffffff1673ffffffffffffffffffffffffffffffffffffffff16815260200190815260200160002060006101000a81548160ff0219169083151502179055508173ffffffffffffffffffffffffffffffffffffffff168373ffffffffffffffffffffffffffffffffffffffff167f17307eab39ab6107e8899845ad3d59bd9653f200f220920489ca2b5937696c31836040516122da9190612c62565b60405180910390a3505050565b6122f2848484611af8565b6122fe84848484612577565b61233d576040517f08c379a000000000000000000000000000000000000000000000000000000000815260040161233490614402565b60405180910390fd5b50505050565b606060405180602001604052806000815250905090565b6060612365826118ed565b6123a4576040517f08c379a000000000000000000000000000000000000000000000000000000000815260040161239b90614494565b60405180910390fd5b60006123ae612343565b905060008151116123ce57604051806020016040528060008152506123f9565b806123d8846126ff565b6040516020016123e9929190613624565b6040516020818303038152906040525b915050919050565b60007f000000000000000000000000000000000000000000000000000000000000000073ffffffffffffffffffffffffffffffffffffffff16634000aea07f0000000000000000000000000000000000000000000000000000000000000000848660006040516020016124759291906144b4565b6040516020818303038152906040526040518463ffffffff1660e01b81526004016124a293929190614532565b6020604051808303816000875af11580156124c1573d6000803e3d6000fd5b505050506040513d601f19601f820116820180604052508101906124e59190614585565b506000612508846000306007600089815260200190815260200160002054612860565b90506001600760008681526020019081526020016000205461252a91906136d7565b600760008681526020019081526020016000208190555061254b848261289c565b91505092915050565b505050565b6125738282604051806020016040528060008152506128cf565b5050565b60006125988473ffffffffffffffffffffffffffffffffffffffff1661292a565b156126f2578373ffffffffffffffffffffffffffffffffffffffff1663150b7a026125c1611959565b8786866040518563ffffffff1660e01b81526004016125e394939291906145b2565b6020604051808303816000875af192505050801561261f57506040513d601f19601f8201168201806040525081019061261c9190614613565b60015b6126a2573d806000811461264f576040519150601f19603f3d011682016040523d82523d6000602084013e612654565b606091505b5060008151141561269a576040517f08c379a000000000000000000000000000000000000000000000000000000000815260040161269190614402565b60405180910390fd5b805181602001fd5b63150b7a0260e01b7bffffffffffffffffffffffffffffffffffffffffffffffffffffffff1916817bffffffffffffffffffffffffffffffffffffffffffffffffffffffff1916149150506126f7565b600190505b949350505050565b60606000821415612747576040518060400160405280600181526020017f3000000000000000000000000000000000000000000000000000000000000000815250905061285b565b600082905060005b6000821461277957808061276290613756565b915050600a82612772919061421d565b915061274f565b60008167ffffffffffffffff81111561279557612794612f4d565b5b6040519080825280601f01601f1916602001820160405280156127c75781602001600182028036833780820191505090505b5090505b60008514612854576001826127e091906141e9565b9150600a856127ef9190613677565b60306127fb91906136d7565b60f81b8183815181106128115761281061379f565b5b60200101907effffffffffffffffffffffffffffffffffffffffffffffffffffffffffffff1916908160001a905350600a8561284d919061421d565b94506127cb565b8093505050505b919050565b6000848484846040516020016128799493929190614640565b6040516020818303038152906040528051906020012060001c9050949350505050565b600082826040516020016128b19291906146c7565b60405160208183030381529060405280519060200120905092915050565b6128d9838361293d565b6128e66000848484612577565b612925576040517f08c379a000000000000000000000000000000000000000000000000000000000815260040161291c90614402565b60405180910390fd5b505050565b600080823b905060008111915050919050565b600073ffffffffffffffffffffffffffffffffffffffff168273ffffffffffffffffffffffffffffffffffffffff1614156129ad576040517f08c379a00000000000000000000000000000000000000000000000000000000081526004016129a49061473f565b60405180910390fd5b6129b6816118ed565b156129f6576040517f08c379a00000000000000000000000000000000000000000000000000000000081526004016129ed906147ab565b60405180910390fd5b612a0260008383612554565b6001600360008473ffffffffffffffffffffffffffffffffffffffff1673ffffffffffffffffffffffffffffffffffffffff1681526020019081526020016000206000828254612a5291906136d7565b92505081905550816002600083815260200190815260200160002060006101000a81548173ffffffffffffffffffffffffffffffffffffffff021916908373ffffffffffffffffffffffffffffffffffffffff160217905550808273ffffffffffffffffffffffffffffffffffffffff16600073ffffffffffffffffffffffffffffffffffffffff167fddf252ad1be2c89b69c2b068fc378daa952ba7f163c4a11628f55a4df523b3ef60405160405180910390a45050565b828054612b1790613357565b90600052602060002090601f016020900481019282612b395760008555612b80565b82601f10612b5257805160ff1916838001178555612b80565b82800160010185558215612b80579182015b82811115612b7f578251825591602001919060010190612b64565b5b509050612b8d9190612b91565b5090565b5b80821115612baa576000816000905550600101612b92565b5090565b6000604051905090565b600080fd5b600080fd5b60007fffffffff0000000000000000000000000000000000000000000000000000000082169050919050565b612bf781612bc2565b8114612c0257600080fd5b50565b600081359050612c1481612bee565b92915050565b600060208284031215612c3057612c2f612bb8565b5b6000612c3e84828501612c05565b91505092915050565b60008115159050919050565b612c5c81612c47565b82525050565b6000602082019050612c776000830184612c53565b92915050565b600081519050919050565b600082825260208201905092915050565b60005b83811015612cb7578082015181840152602081019050612c9c565b83811115612cc6576000848401525b50505050565b6000601f19601f8301169050919050565b6000612ce882612c7d565b612cf28185612c88565b9350612d02818560208601612c99565b612d0b81612ccc565b840191505092915050565b60006020820190508181036000830152612d308184612cdd565b905092915050565b6000819050919050565b612d4b81612d38565b8114612d5657600080fd5b50565b600081359050612d6881612d42565b92915050565b600060208284031215612d8457612d83612bb8565b5b6000612d9284828501612d59565b91505092915050565b600073ffffffffffffffffffffffffffffffffffffffff82169050919050565b6000612dc682612d9b565b9050919050565b612dd681612dbb565b82525050565b6000602082019050612df16000830184612dcd565b92915050565b612e0081612dbb565b8114612e0b57600080fd5b50565b600081359050612e1d81612df7565b92915050565b60008060408385031215612e3a57612e39612bb8565b5b6000612e4885828601612e0e565b9250506020612e5985828601612d59565b9150509250929050565b6000819050919050565b612e7681612e63565b8114612e8157600080fd5b50565b600081359050612e9381612e6d565b92915050565b600060208284031215612eaf57612eae612bb8565b5b6000612ebd84828501612e84565b91505092915050565b612ecf81612d38565b82525050565b6000602082019050612eea6000830184612ec6565b92915050565b600080600060608486031215612f0957612f08612bb8565b5b6000612f1786828701612e0e565b9350506020612f2886828701612e0e565b9250506040612f3986828701612d59565b9150509250925092565b600080fd5b600080fd5b7f4e487b7100000000000000000000000000000000000000000000000000000000600052604160045260246000fd5b612f8582612ccc565b810181811067ffffffffffffffff82111715612fa457612fa3612f4d565b5b80604052505050565b6000612fb7612bae565b9050612fc38282612f7c565b919050565b600067ffffffffffffffff821115612fe357612fe2612f4d565b5b612fec82612ccc565b9050602081019050919050565b82818337600083830152505050565b600061301b61301684612fc8565b612fad565b90508281526020810184848401111561303757613036612f48565b5b613042848285612ff9565b509392505050565b600082601f83011261305f5761305e612f43565b5b813561306f848260208601613008565b91505092915050565b60006020828403121561308e5761308d612bb8565b5b600082013567ffffffffffffffff8111156130ac576130ab612bbd565b5b6130b88482850161304a565b91505092915050565b6000602082840312156130d7576130d6612bb8565b5b60006130e584828501612e0e565b91505092915050565b6000806040838503121561310557613104612bb8565b5b600061311385828601612e84565b925050602061312485828601612d59565b9150509250929050565b61313781612c47565b811461314257600080fd5b50565b6000813590506131548161312e565b92915050565b6000806040838503121561317157613170612bb8565b5b600061317f85828601612e0e565b925050602061319085828601613145565b9150509250929050565b600067ffffffffffffffff8211156131b5576131b4612f4d565b5b6131be82612ccc565b9050602081019050919050565b60006131de6131d98461319a565b612fad565b9050828152602081018484840111156131fa576131f9612f48565b5b613205848285612ff9565b509392505050565b600082601f83011261322257613221612f43565b5b81356132328482602086016131cb565b91505092915050565b6000806000806080858703121561325557613254612bb8565b5b600061326387828801612e0e565b945050602061327487828801612e0e565b935050604061328587828801612d59565b925050606085013567ffffffffffffffff8111156132a6576132a5612bbd565b5b6132b28782880161320d565b91505092959194509250565b600080604083850312156132d5576132d4612bb8565b5b60006132e385828601612e0e565b92505060206132f485828601612e0e565b9150509250929050565b61330781612e63565b82525050565b600060208201905061332260008301846132fe565b92915050565b7f4e487b7100000000000000000000000000000000000000000000000000000000600052602260045260246000fd5b6000600282049050600182168061336f57607f821691505b6020821081141561338357613382613328565b5b50919050565b7f4552433732313a20617070726f76656420717565727920666f72206e6f6e657860008201527f697374656e7420746f6b656e0000000000000000000000000000000000000000602082015250565b60006133e5602c83612c88565b91506133f082613389565b604082019050919050565b60006020820190508181036000830152613414816133d8565b9050919050565b7f4552433732313a20617070726f76616c20746f2063757272656e74206f776e6560008201527f7200000000000000000000000000000000000000000000000000000000000000602082015250565b6000613477602183612c88565b91506134828261341b565b604082019050919050565b600060208201905081810360008301526134a68161346a565b9050919050565b7f4552433732313a20617070726f76652063616c6c6572206973206e6f74206f7760008201527f6e6572206e6f7220617070726f76656420666f7220616c6c0000000000000000602082015250565b6000613509603883612c88565b9150613514826134ad565b604082019050919050565b60006020820190508181036000830152613538816134fc565b9050919050565b7f4552433732313a207472616e736665722063616c6c6572206973206e6f74206f60008201527f776e6572206e6f7220617070726f766564000000000000000000000000000000602082015250565b600061359b603183612c88565b91506135a68261353f565b604082019050919050565b600060208201905081810360008301526135ca8161358e565b9050919050565b600081905092915050565b60006135e782612c7d565b6135f181856135d1565b9350613601818560208601612c99565b80840191505092915050565b600061361982846135dc565b915081905092915050565b600061363082856135dc565b915061363c82846135dc565b91508190509392505050565b7f4e487b7100000000000000000000000000000000000000000000000000000000600052601260045260246000fd5b600061368282612d38565b915061368d83612d38565b92508261369d5761369c613648565b5b828206905092915050565b7f4e487b7100000000000000000000000000000000000000000000000000000000600052601160045260246000fd5b60006136e282612d38565b91506136ed83612d38565b9250827fffffffffffffffffffffffffffffffffffffffffffffffffffffffffffffffff03821115613722576137216136a8565b5b828201905092915050565b60006040820190506137426000830185612ec6565b61374f6020830184612ec6565b9392505050565b600061376182612d38565b91507fffffffffffffffffffffffffffffffffffffffffffffffffffffffffffffffff821415613794576137936136a8565b5b600182019050919050565b7f4e487b7100000000000000000000000000000000000000000000000000000000600052603260045260246000fd5b7f272066696c6c3d277472616e73706172656e7427207374726f6b653d27000000600082015250565b6000613804601d836135d1565b915061380f826137ce565b601d82019050919050565b7f272f3e0000000000000000000000000000000000000000000000000000000000600082015250565b60006138506003836135d1565b915061385b8261381a565b600382019050919050565b600061387282856135dc565b915061387d826137f7565b915061388982846135dc565b915061389482613843565b91508190509392505050565b7f746f6b656e55524920697320616c726561647920736574210000000000000000600082015250565b60006138d6601883612c88565b91506138e1826138a0565b602082019050919050565b60006020820190508181036000830152613905816138c9565b9050919050565b7f546f6b656e496420686173206e6f74206265656e206d696e7465642079657421600082015250565b6000613942602083612c88565b915061394d8261390c565b602082019050919050565b6000602082019050818103600083015261397181613935565b9050919050565b7f4e65656420746f207761697420666f722074686520436861696e6c696e6b206e60008201527f6f646520746f20726573706f6e64210000000000000000000000000000000000602082015250565b60006139d4602f83612c88565b91506139df82613978565b604082019050919050565b60006020820190508181036000830152613a03816139c7565b9050919050565b7f4552433732313a206f776e657220717565727920666f72206e6f6e657869737460008201527f656e7420746f6b656e0000000000000000000000000000000000000000000000602082015250565b6000613a66602983612c88565b9150613a7182613a0a565b604082019050919050565b60006020820190508181036000830152613a9581613a59565b9050919050565b7f3c73766720786d6c6e733d27687474703a2f2f7777772e77332e6f72672f323060008201527f30302f73766727206865696768743d2700000000000000000000000000000000602082015250565b6000613af86030836135d1565b9150613b0382613a9c565b603082019050919050565b7f272077696474683d270000000000000000000000000000000000000000000000600082015250565b6000613b446009836135d1565b9150613b4f82613b0e565b600982019050919050565b7f273e000000000000000000000000000000000000000000000000000000000000600082015250565b6000613b906002836135d1565b9150613b9b82613b5a565b600282019050919050565b6000613bb182613aeb565b9150613bbd82856135dc565b9150613bc882613b37565b9150613bd482846135dc565b9150613bdf82613b83565b91508190509392505050565b7f3c2f7376673e0000000000000000000000000000000000000000000000000000600082015250565b6000613c216006836135d1565b9150613c2c82613beb565b600682019050919050565b6000613c4382846135dc565b9150613c4e82613c14565b915081905092915050565b7f4552433732313a2062616c616e636520717565727920666f7220746865207a6560008201527f726f206164647265737300000000000000000000000000000000000000000000602082015250565b6000613cb5602a83612c88565b9150613cc082613c59565b604082019050919050565b60006020820190508181036000830152613ce481613ca8565b9050919050565b7f7b226e616d65223a2022535647204e4654222c20226465736372697074696f6e60008201527f223a2022416e2053564720637265617465642061732070617274206f6620612060208201527f70726f6f66206f6620636f6e6365707420666f722042474b203531394520495460408201527f552032303232222c202261747472696275746573223a22616e7920637573746f60608201527f6d2061747472696275746573222c2022696d616765223a202200000000000000608082015250565b6000613db96099836135d1565b9150613dc482613ceb565b609982019050919050565b7f227d000000000000000000000000000000000000000000000000000000000000600082015250565b6000613e056002836135d1565b9150613e1082613dcf565b600282019050919050565b6000613e2682613dac565b9150613e3282846135dc565b9150613e3d82613df8565b915081905092915050565b7f4f6e6c7920565246436f6f7264696e61746f722063616e2066756c66696c6c00600082015250565b6000613e7e601f83612c88565b9150613e8982613e48565b602082019050919050565b60006020820190508181036000830152613ead81613e71565b9050919050565b6000613ebf82612d38565b9150613eca83612d38565b9250817fffffffffffffffffffffffffffffffffffffffffffffffffffffffffffffffff0483118215151615613f0357613f026136a8565b5b828202905092915050565b7f2000000000000000000000000000000000000000000000000000000000000000600082015250565b6000613f446001836135d1565b9150613f4f82613f0e565b600182019050919050565b6000613f6682866135dc565b9150613f7182613f37565b9150613f7d82856135dc565b9150613f8882613f37565b9150613f9482846135dc565b9150819050949350505050565b7f45524337323155524953746f726167653a2055524920717565727920666f722060008201527f6e6f6e6578697374656e7420746f6b656e000000000000000000000000000000602082015250565b6000613ffd603183612c88565b915061400882613fa1565b604082019050919050565b6000602082019050818103600083015261402c81613ff0565b9050919050565b7f4552433732313a206f70657261746f7220717565727920666f72206e6f6e657860008201527f697374656e7420746f6b656e0000000000000000000000000000000000000000602082015250565b600061408f602c83612c88565b915061409a82614033565b604082019050919050565b600060208201905081810360008301526140be81614082565b9050919050565b7f4552433732313a207472616e73666572206f6620746f6b656e2074686174206960008201527f73206e6f74206f776e0000000000000000000000000000000000000000000000602082015250565b6000614121602983612c88565b915061412c826140c5565b604082019050919050565b6000602082019050818103600083015261415081614114565b9050919050565b7f4552433732313a207472616e7366657220746f20746865207a65726f2061646460008201527f7265737300000000000000000000000000000000000000000000000000000000602082015250565b60006141b3602483612c88565b91506141be82614157565b604082019050919050565b600060208201905081810360008301526141e2816141a6565b9050919050565b60006141f482612d38565b91506141ff83612d38565b925082821015614212576142116136a8565b5b828203905092915050565b600061422882612d38565b915061423383612d38565b92508261424357614242613648565b5b828204905092915050565b7f45524337323155524953746f726167653a2055524920736574206f66206e6f6e60008201527f6578697374656e7420746f6b656e000000000000000000000000000000000000602082015250565b60006142aa602e83612c88565b91506142b58261424e565b604082019050919050565b600060208201905081810360008301526142d98161429d565b9050919050565b600060ff82169050919050565b60006142f8826142e0565b9150614303836142e0565b92508260ff03821115614319576143186136a8565b5b828201905092915050565b7f4552433732313a20617070726f766520746f2063616c6c657200000000000000600082015250565b600061435a601983612c88565b915061436582614324565b602082019050919050565b600060208201905081810360008301526143898161434d565b9050919050565b7f4552433732313a207472616e7366657220746f206e6f6e20455243373231526560008201527f63656976657220696d706c656d656e7465720000000000000000000000000000602082015250565b60006143ec603283612c88565b91506143f782614390565b604082019050919050565b6000602082019050818103600083015261441b816143df565b9050919050565b7f4552433732314d657461646174613a2055524920717565727920666f72206e6f60008201527f6e6578697374656e7420746f6b656e0000000000000000000000000000000000602082015250565b600061447e602f83612c88565b915061448982614422565b604082019050919050565b600060208201905081810360008301526144ad81614471565b9050919050565b60006040820190506144c960008301856132fe565b6144d66020830184612ec6565b9392505050565b600081519050919050565b600082825260208201905092915050565b6000614504826144dd565b61450e81856144e8565b935061451e818560208601612c99565b61452781612ccc565b840191505092915050565b60006060820190506145476000830186612dcd565b6145546020830185612ec6565b818103604083015261456681846144f9565b9050949350505050565b60008151905061457f8161312e565b92915050565b60006020828403121561459b5761459a612bb8565b5b60006145a984828501614570565b91505092915050565b60006080820190506145c76000830187612dcd565b6145d46020830186612dcd565b6145e16040830185612ec6565b81810360608301526145f381846144f9565b905095945050505050565b60008151905061460d81612bee565b92915050565b60006020828403121561462957614628612bb8565b5b6000614637848285016145fe565b91505092915050565b600060808201905061465560008301876132fe565b6146626020830186612ec6565b61466f6040830185612dcd565b61467c6060830184612ec6565b95945050505050565b6000819050919050565b6146a061469b82612e63565b614685565b82525050565b6000819050919050565b6146c16146bc82612d38565b6146a6565b82525050565b60006146d3828561468f565b6020820191506146e382846146b0565b6020820191508190509392505050565b7f4552433732313a206d696e7420746f20746865207a65726f2061646472657373600082015250565b6000614729602083612c88565b9150614734826146f3565b602082019050919050565b600060208201905081810360008301526147588161471c565b9050919050565b7f4552433732313a20746f6b656e20616c7265616479206d696e74656400000000600082015250565b6000614795601c83612c88565b91506147a08261475f565b602082019050919050565b600060208201905081810360008301526147c481614788565b905091905056fe4142434445464748494a4b4c4d4e4f505152535455565758595a6162636465666768696a6b6c6d6e6f707172737475767778797a303132333435363738392b2fa26469706673582212205d82b4e61c4b3d918a05e13a0de6adc53b37c1df43d4a918feb74403713f588764736f6c634300080b0033",
  "devdoc": {
    "kind": "dev",
    "methods": {
      "approve(address,uint256)": {
        "details": "See {IERC721-approve}."
      },
      "balanceOf(address)": {
        "details": "See {IERC721-balanceOf}."
      },
      "getApproved(uint256)": {
        "details": "See {IERC721-getApproved}."
      },
      "isApprovedForAll(address,address)": {
        "details": "See {IERC721-isApprovedForAll}."
      },
      "name()": {
        "details": "See {IERC721Metadata-name}."
      },
      "ownerOf(uint256)": {
        "details": "See {IERC721-ownerOf}."
      },
      "safeTransferFrom(address,address,uint256)": {
        "details": "See {IERC721-safeTransferFrom}."
      },
      "safeTransferFrom(address,address,uint256,bytes)": {
        "details": "See {IERC721-safeTransferFrom}."
      },
      "setApprovalForAll(address,bool)": {
        "details": "See {IERC721-setApprovalForAll}."
      },
      "supportsInterface(bytes4)": {
        "details": "See {IERC165-supportsInterface}."
      },
      "symbol()": {
        "details": "See {IERC721Metadata-symbol}."
      },
      "tokenURI(uint256)": {
        "details": "See {IERC721Metadata-tokenURI}."
      },
      "transferFrom(address,address,uint256)": {
        "details": "See {IERC721-transferFrom}."
      }
    },
    "version": 1
  },
  "userdoc": {
    "kind": "user",
    "methods": {},
    "version": 1
  },
  "storageLayout": {
    "storage": [
      {
        "astId": 291,
        "contract": "contracts/RandomSVG.sol:RandomSVG",
        "label": "_name",
        "offset": 0,
        "slot": "0",
        "type": "t_string_storage"
      },
      {
        "astId": 293,
        "contract": "contracts/RandomSVG.sol:RandomSVG",
        "label": "_symbol",
        "offset": 0,
        "slot": "1",
        "type": "t_string_storage"
      },
      {
        "astId": 297,
        "contract": "contracts/RandomSVG.sol:RandomSVG",
        "label": "_owners",
        "offset": 0,
        "slot": "2",
        "type": "t_mapping(t_uint256,t_address)"
      },
      {
        "astId": 301,
        "contract": "contracts/RandomSVG.sol:RandomSVG",
        "label": "_balances",
        "offset": 0,
        "slot": "3",
        "type": "t_mapping(t_address,t_uint256)"
      },
      {
        "astId": 305,
        "contract": "contracts/RandomSVG.sol:RandomSVG",
        "label": "_tokenApprovals",
        "offset": 0,
        "slot": "4",
        "type": "t_mapping(t_uint256,t_address)"
      },
      {
        "astId": 311,
        "contract": "contracts/RandomSVG.sol:RandomSVG",
        "label": "_operatorApprovals",
        "offset": 0,
        "slot": "5",
        "type": "t_mapping(t_address,t_mapping(t_address,t_bool))"
      },
      {
        "astId": 1243,
        "contract": "contracts/RandomSVG.sol:RandomSVG",
        "label": "_tokenURIs",
        "offset": 0,
        "slot": "6",
        "type": "t_mapping(t_uint256,t_string_storage)"
      },
      {
        "astId": 79,
        "contract": "contracts/RandomSVG.sol:RandomSVG",
        "label": "nonces",
        "offset": 0,
        "slot": "7",
        "type": "t_mapping(t_bytes32,t_uint256)"
      },
      {
        "astId": 2069,
        "contract": "contracts/RandomSVG.sol:RandomSVG",
        "label": "tokenCounter",
        "offset": 0,
        "slot": "8",
        "type": "t_uint256"
      },
      {
        "astId": 2071,
        "contract": "contracts/RandomSVG.sol:RandomSVG",
        "label": "keyHash",
        "offset": 0,
        "slot": "9",
        "type": "t_bytes32"
      },
      {
        "astId": 2073,
        "contract": "contracts/RandomSVG.sol:RandomSVG",
        "label": "fee",
        "offset": 0,
        "slot": "10",
        "type": "t_uint256"
      },
      {
        "astId": 2075,
        "contract": "contracts/RandomSVG.sol:RandomSVG",
        "label": "maxNumberOfPaths",
        "offset": 0,
        "slot": "11",
        "type": "t_uint256"
      },
      {
        "astId": 2077,
        "contract": "contracts/RandomSVG.sol:RandomSVG",
        "label": "maxNumberOfPathCommands",
        "offset": 0,
        "slot": "12",
        "type": "t_uint256"
      },
      {
        "astId": 2079,
        "contract": "contracts/RandomSVG.sol:RandomSVG",
        "label": "size",
        "offset": 0,
        "slot": "13",
        "type": "t_uint256"
      },
      {
        "astId": 2082,
        "contract": "contracts/RandomSVG.sol:RandomSVG",
        "label": "pathCommands",
        "offset": 0,
        "slot": "14",
        "type": "t_array(t_string_storage)dyn_storage"
      },
      {
        "astId": 2085,
        "contract": "contracts/RandomSVG.sol:RandomSVG",
        "label": "colors",
        "offset": 0,
        "slot": "15",
        "type": "t_array(t_string_storage)dyn_storage"
      },
      {
        "astId": 2089,
        "contract": "contracts/RandomSVG.sol:RandomSVG",
        "label": "requestIdToSender",
        "offset": 0,
        "slot": "16",
        "type": "t_mapping(t_bytes32,t_address)"
      },
      {
        "astId": 2093,
        "contract": "contracts/RandomSVG.sol:RandomSVG",
        "label": "tokenIdToRandomNumber",
        "offset": 0,
        "slot": "17",
        "type": "t_mapping(t_uint256,t_uint256)"
      },
      {
        "astId": 2097,
        "contract": "contracts/RandomSVG.sol:RandomSVG",
        "label": "requestIdToTokenId",
        "offset": 0,
        "slot": "18",
        "type": "t_mapping(t_bytes32,t_uint256)"
      }
    ],
    "types": {
      "t_address": {
        "encoding": "inplace",
        "label": "address",
        "numberOfBytes": "20"
      },
      "t_array(t_string_storage)dyn_storage": {
        "base": "t_string_storage",
        "encoding": "dynamic_array",
        "label": "string[]",
        "numberOfBytes": "32"
      },
      "t_bool": {
        "encoding": "inplace",
        "label": "bool",
        "numberOfBytes": "1"
      },
      "t_bytes32": {
        "encoding": "inplace",
        "label": "bytes32",
        "numberOfBytes": "32"
      },
      "t_mapping(t_address,t_bool)": {
        "encoding": "mapping",
        "key": "t_address",
        "label": "mapping(address => bool)",
        "numberOfBytes": "32",
        "value": "t_bool"
      },
      "t_mapping(t_address,t_mapping(t_address,t_bool))": {
        "encoding": "mapping",
        "key": "t_address",
        "label": "mapping(address => mapping(address => bool))",
        "numberOfBytes": "32",
        "value": "t_mapping(t_address,t_bool)"
      },
      "t_mapping(t_address,t_uint256)": {
        "encoding": "mapping",
        "key": "t_address",
        "label": "mapping(address => uint256)",
        "numberOfBytes": "32",
        "value": "t_uint256"
      },
      "t_mapping(t_bytes32,t_address)": {
        "encoding": "mapping",
        "key": "t_bytes32",
        "label": "mapping(bytes32 => address)",
        "numberOfBytes": "32",
        "value": "t_address"
      },
      "t_mapping(t_bytes32,t_uint256)": {
        "encoding": "mapping",
        "key": "t_bytes32",
        "label": "mapping(bytes32 => uint256)",
        "numberOfBytes": "32",
        "value": "t_uint256"
      },
      "t_mapping(t_uint256,t_address)": {
        "encoding": "mapping",
        "key": "t_uint256",
        "label": "mapping(uint256 => address)",
        "numberOfBytes": "32",
        "value": "t_address"
      },
      "t_mapping(t_uint256,t_string_storage)": {
        "encoding": "mapping",
        "key": "t_uint256",
        "label": "mapping(uint256 => string)",
        "numberOfBytes": "32",
        "value": "t_string_storage"
      },
      "t_mapping(t_uint256,t_uint256)": {
        "encoding": "mapping",
        "key": "t_uint256",
        "label": "mapping(uint256 => uint256)",
        "numberOfBytes": "32",
        "value": "t_uint256"
      },
      "t_string_storage": {
        "encoding": "bytes",
        "label": "string",
        "numberOfBytes": "32"
      },
      "t_uint256": {
        "encoding": "inplace",
        "label": "uint256",
        "numberOfBytes": "32"
      }
    }
  }
}