{
  "address": "0xbbCc6e113eB6C17a923902770802df08f712b105",
  "abi": [
    {
      "inputs": [],
      "stateMutability": "nonpayable",
      "type": "constructor"
    },
    {
      "anonymous": false,
      "inputs": [
        {
          "indexed": true,
          "internalType": "address",
          "name": "owner",
          "type": "address"
        },
        {
          "indexed": true,
          "internalType": "address",
          "name": "approved",
          "type": "address"
        },
        {
          "indexed": true,
          "internalType": "uint256",
          "name": "tokenId",
          "type": "uint256"
        }
      ],
      "name": "Approval",
      "type": "event"
    },
    {
      "anonymous": false,
      "inputs": [
        {
          "indexed": true,
          "internalType": "address",
          "name": "owner",
          "type": "address"
        },
        {
          "indexed": true,
          "internalType": "address",
          "name": "operator",
          "type": "address"
        },
        {
          "indexed": false,
          "internalType": "bool",
          "name": "approved",
          "type": "bool"
        }
      ],
      "name": "ApprovalForAll",
      "type": "event"
    },
    {
      "anonymous": false,
      "inputs": [
        {
          "indexed": true,
          "internalType": "uint256",
          "name": "tokenId",
          "type": "uint256"
        },
        {
          "indexed": false,
          "internalType": "string",
          "name": "tokenURI",
          "type": "string"
        }
      ],
      "name": "CreatedSVGNFT",
      "type": "event"
    },
    {
      "anonymous": false,
      "inputs": [
        {
          "indexed": true,
          "internalType": "address",
          "name": "from",
          "type": "address"
        },
        {
          "indexed": true,
          "internalType": "address",
          "name": "to",
          "type": "address"
        },
        {
          "indexed": true,
          "internalType": "uint256",
          "name": "tokenId",
          "type": "uint256"
        }
      ],
      "name": "Transfer",
      "type": "event"
    },
    {
      "inputs": [
        {
          "internalType": "address",
          "name": "to",
          "type": "address"
        },
        {
          "internalType": "uint256",
          "name": "tokenId",
          "type": "uint256"
        }
      ],
      "name": "approve",
      "outputs": [],
      "stateMutability": "nonpayable",
      "type": "function"
    },
    {
      "inputs": [
        {
          "internalType": "address",
          "name": "owner",
          "type": "address"
        }
      ],
      "name": "balanceOf",
      "outputs": [
        {
          "internalType": "uint256",
          "name": "",
          "type": "uint256"
        }
      ],
      "stateMutability": "view",
      "type": "function"
    },
    {
      "inputs": [
        {
          "internalType": "string",
          "name": "_svg",
          "type": "string"
        }
      ],
      "name": "create",
      "outputs": [],
      "stateMutability": "nonpayable",
      "type": "function"
    },
    {
      "inputs": [
        {
          "internalType": "string",
          "name": "_imageURI",
          "type": "string"
        }
      ],
      "name": "formateTokenURI",
      "outputs": [
        {
          "internalType": "string",
          "name": "",
          "type": "string"
        }
      ],
      "stateMutability": "pure",
      "type": "function"
    },
    {
      "inputs": [
        {
          "internalType": "uint256",
          "name": "tokenId",
          "type": "uint256"
        }
      ],
      "name": "getApproved",
      "outputs": [
        {
          "internalType": "address",
          "name": "",
          "type": "address"
        }
      ],
      "stateMutability": "view",
      "type": "function"
    },
    {
      "inputs": [
        {
          "internalType": "address",
          "name": "owner",
          "type": "address"
        },
        {
          "internalType": "address",
          "name": "operator",
          "type": "address"
        }
      ],
      "name": "isApprovedForAll",
      "outputs": [
        {
          "internalType": "bool",
          "name": "",
          "type": "bool"
        }
      ],
      "stateMutability": "view",
      "type": "function"
    },
    {
      "inputs": [],
      "name": "name",
      "outputs": [
        {
          "internalType": "string",
          "name": "",
          "type": "string"
        }
      ],
      "stateMutability": "view",
      "type": "function"
    },
    {
      "inputs": [
        {
          "internalType": "uint256",
          "name": "tokenId",
          "type": "uint256"
        }
      ],
      "name": "ownerOf",
      "outputs": [
        {
          "internalType": "address",
          "name": "",
          "type": "address"
        }
      ],
      "stateMutability": "view",
      "type": "function"
    },
    {
      "inputs": [
        {
          "internalType": "address",
          "name": "from",
          "type": "address"
        },
        {
          "internalType": "address",
          "name": "to",
          "type": "address"
        },
        {
          "internalType": "uint256",
          "name": "tokenId",
          "type": "uint256"
        }
      ],
      "name": "safeTransferFrom",
      "outputs": [],
      "stateMutability": "nonpayable",
      "type": "function"
    },
    {
      "inputs": [
        {
          "internalType": "address",
          "name": "from",
          "type": "address"
        },
        {
          "internalType": "address",
          "name": "to",
          "type": "address"
        },
        {
          "internalType": "uint256",
          "name": "tokenId",
          "type": "uint256"
        },
        {
          "internalType": "bytes",
          "name": "_data",
          "type": "bytes"
        }
      ],
      "name": "safeTransferFrom",
      "outputs": [],
      "stateMutability": "nonpayable",
      "type": "function"
    },
    {
      "inputs": [
        {
          "internalType": "address",
          "name": "operator",
          "type": "address"
        },
        {
          "internalType": "bool",
          "name": "approved",
          "type": "bool"
        }
      ],
      "name": "setApprovalForAll",
      "outputs": [],
      "stateMutability": "nonpayable",
      "type": "function"
    },
    {
      "inputs": [
        {
          "internalType": "bytes4",
          "name": "interfaceId",
          "type": "bytes4"
        }
      ],
      "name": "supportsInterface",
      "outputs": [
        {
          "internalType": "bool",
          "name": "",
          "type": "bool"
        }
      ],
      "stateMutability": "view",
      "type": "function"
    },
    {
      "inputs": [
        {
          "internalType": "string",
          "name": "_svg",
          "type": "string"
        }
      ],
      "name": "svgToImageURI",
      "outputs": [
        {
          "internalType": "string",
          "name": "",
          "type": "string"
        }
      ],
      "stateMutability": "pure",
      "type": "function"
    },
    {
      "inputs": [],
      "name": "symbol",
      "outputs": [
        {
          "internalType": "string",
          "name": "",
          "type": "string"
        }
      ],
      "stateMutability": "view",
      "type": "function"
    },
    {
      "inputs": [],
      "name": "tokenCounter",
      "outputs": [
        {
          "internalType": "uint256",
          "name": "",
          "type": "uint256"
        }
      ],
      "stateMutability": "view",
      "type": "function"
    },
    {
      "inputs": [
        {
          "internalType": "uint256",
          "name": "tokenId",
          "type": "uint256"
        }
      ],
      "name": "tokenURI",
      "outputs": [
        {
          "internalType": "string",
          "name": "",
          "type": "string"
        }
      ],
      "stateMutability": "view",
      "type": "function"
    },
    {
      "inputs": [
        {
          "internalType": "address",
          "name": "from",
          "type": "address"
        },
        {
          "internalType": "address",
          "name": "to",
          "type": "address"
        },
        {
          "internalType": "uint256",
          "name": "tokenId",
          "type": "uint256"
        }
      ],
      "name": "transferFrom",
      "outputs": [],
      "stateMutability": "nonpayable",
      "type": "function"
    }
  ],
  "transactionHash": "0xdb2265a9b1802155fdb015ffb863c8f1bab7a8e9bb41f729a8c70a844f4018f6",
  "args": [],
  "numDeployments": 1,
  "solcInputHash": "8f49438cd3b00f25d70a9658c1a58e72",
  "bytecode": "0x60806040523480156200001157600080fd5b506040518060400160405280600781526020017f535647204e4654000000000000000000000000000000000000000000000000008152506040518060400160405280600681526020017f7376674e46540000000000000000000000000000000000000000000000000000815250816000908051906020019062000096929190620000c0565b508060019080519060200190620000af929190620000c0565b5050506000600781905550620001d5565b828054620000ce906200019f565b90600052602060002090601f016020900481019282620000f257600085556200013e565b82601f106200010d57805160ff19168380011785556200013e565b828001600101855582156200013e579182015b828111156200013d57825182559160200191906001019062000120565b5b5090506200014d919062000151565b5090565b5b808211156200016c57600081600090555060010162000152565b5090565b7f4e487b7100000000000000000000000000000000000000000000000000000000600052602260045260246000fd5b60006002820490506001821680620001b857607f821691505b60208210811415620001cf57620001ce62000170565b5b50919050565b61313e80620001e56000396000f3fe608060405234801561001057600080fd5b506004361061010b5760003560e01c80636352211e116100a2578063b6a46b3b11610071578063b6a46b3b146102dc578063b88d4fde146102f8578063c87b56dd14610314578063d082e38114610344578063e985e9c5146103625761010b565b80636352211e1461024257806370a082311461027257806395d89b41146102a2578063a22cb465146102c05761010b565b806323b872dd116100de57806323b872dd146101aa57806330d871c6146101c65780633162b1da146101f657806342842e0e146102265761010b565b806301ffc9a71461011057806306fdde0314610140578063081812fc1461015e578063095ea7b31461018e575b600080fd5b61012a60048036038101906101259190611ccb565b610392565b6040516101379190611d13565b60405180910390f35b610148610474565b6040516101559190611dc7565b60405180910390f35b61017860048036038101906101739190611e1f565b610506565b6040516101859190611e8d565b60405180910390f35b6101a860048036038101906101a39190611ed4565b61058b565b005b6101c460048036038101906101bf9190611f14565b6106a3565b005b6101e060048036038101906101db919061209c565b610703565b6040516101ed9190611dc7565b60405180910390f35b610210600480360381019061020b919061209c565b61079c565b60405161021d9190611dc7565b60405180910390f35b610240600480360381019061023b9190611f14565b610829565b005b61025c60048036038101906102579190611e1f565b610849565b6040516102699190611e8d565b60405180910390f35b61028c600480360381019061028791906120e5565b6108fb565b6040516102999190612121565b60405180910390f35b6102aa6109b3565b6040516102b79190611dc7565b60405180910390f35b6102da60048036038101906102d59190612168565b610a45565b005b6102f660048036038101906102f1919061209c565b610a5b565b005b610312600480360381019061030d9190612249565b610ae1565b005b61032e60048036038101906103299190611e1f565b610b43565b60405161033b9190611dc7565b60405180910390f35b61034c610c95565b6040516103599190612121565b60405180910390f35b61037c600480360381019061037791906122cc565b610c9b565b6040516103899190611d13565b60405180910390f35b60007f80ac58cd000000000000000000000000000000000000000000000000000000007bffffffffffffffffffffffffffffffffffffffffffffffffffffffff1916827bffffffffffffffffffffffffffffffffffffffffffffffffffffffff1916148061045d57507f5b5e139f000000000000000000000000000000000000000000000000000000007bffffffffffffffffffffffffffffffffffffffffffffffffffffffff1916827bffffffffffffffffffffffffffffffffffffffffffffffffffffffff1916145b8061046d575061046c82610d2f565b5b9050919050565b6060600080546104839061233b565b80601f01602080910402602001604051908101604052809291908181526020018280546104af9061233b565b80156104fc5780601f106104d1576101008083540402835291602001916104fc565b820191906000526020600020905b8154815290600101906020018083116104df57829003601f168201915b5050505050905090565b600061051182610d99565b610550576040517f08c379a0000000000000000000000000000000000000000000000000000000008152600401610547906123df565b60405180910390fd5b6004600083815260200190815260200160002060009054906101000a900473ffffffffffffffffffffffffffffffffffffffff169050919050565b600061059682610849565b90508073ffffffffffffffffffffffffffffffffffffffff168373ffffffffffffffffffffffffffffffffffffffff161415610607576040517f08c379a00000000000000000000000000000000000000000000000000000000081526004016105fe90612471565b60405180910390fd5b8073ffffffffffffffffffffffffffffffffffffffff16610626610e05565b73ffffffffffffffffffffffffffffffffffffffff16148061065557506106548161064f610e05565b610c9b565b5b610694576040517f08c379a000000000000000000000000000000000000000000000000000000000815260040161068b90612503565b60405180910390fd5b61069e8383610e0d565b505050565b6106b46106ae610e05565b82610ec6565b6106f3576040517f08c379a00000000000000000000000000000000000000000000000000000000081526004016106ea90612595565b60405180910390fd5b6106fe838383610fa4565b505050565b606060006040518060400160405280601a81526020017f646174613a696d6167652f7376672b786d6c3b6261736536342c000000000000815250905060006107698460405160200161075591906125f1565b604051602081830303815290604052611200565b905060008282604051602001610780929190612608565b6040516020818303038152906040529050809350505050919050565b606060006040518060400160405280601d81526020017f646174613a6170706c69636174696f6e2f6a736f6e3b6261736536342c000000815250905080610801846040516020016107ed9190612736565b604051602081830303815290604052611200565b604051602001610812929190612608565b604051602081830303815290604052915050919050565b61084483838360405180602001604052806000815250610ae1565b505050565b6000806002600084815260200190815260200160002060009054906101000a900473ffffffffffffffffffffffffffffffffffffffff169050600073ffffffffffffffffffffffffffffffffffffffff168173ffffffffffffffffffffffffffffffffffffffff1614156108f2576040517f08c379a00000000000000000000000000000000000000000000000000000000081526004016108e9906127d5565b60405180910390fd5b80915050919050565b60008073ffffffffffffffffffffffffffffffffffffffff168273ffffffffffffffffffffffffffffffffffffffff16141561096c576040517f08c379a000000000000000000000000000000000000000000000000000000000815260040161096390612867565b60405180910390fd5b600360008373ffffffffffffffffffffffffffffffffffffffff1673ffffffffffffffffffffffffffffffffffffffff168152602001908152602001600020549050919050565b6060600180546109c29061233b565b80601f01602080910402602001604051908101604052809291908181526020018280546109ee9061233b565b8015610a3b5780601f10610a1057610100808354040283529160200191610a3b565b820191906000526020600020905b815481529060010190602001808311610a1e57829003601f168201915b5050505050905090565b610a57610a50610e05565b8383611379565b5050565b610a67336007546114e6565b6000610a7282610703565b90506000610a7f8261079c565b9050610a8d60075482611504565b6007547ff5acc616aa8ecd00e5d76674d7812f9c3c3571d662c9fba4499deefa6d0be12d82604051610abf9190611dc7565b60405180910390a26001600754610ad691906128b6565b600781905550505050565b610af2610aec610e05565b83610ec6565b610b31576040517f08c379a0000000000000000000000000000000000000000000000000000000008152600401610b2890612595565b60405180910390fd5b610b3d84848484611578565b50505050565b6060610b4e82610d99565b610b8d576040517f08c379a0000000000000000000000000000000000000000000000000000000008152600401610b849061297e565b60405180910390fd5b6000600660008481526020019081526020016000208054610bad9061233b565b80601f0160208091040260200160405190810160405280929190818152602001828054610bd99061233b565b8015610c265780601f10610bfb57610100808354040283529160200191610c26565b820191906000526020600020905b815481529060010190602001808311610c0957829003601f168201915b505050505090506000610c376115d4565b9050600081511415610c4d578192505050610c90565b600082511115610c82578082604051602001610c6a929190612608565b60405160208183030381529060405292505050610c90565b610c8b846115eb565b925050505b919050565b60075481565b6000600560008473ffffffffffffffffffffffffffffffffffffffff1673ffffffffffffffffffffffffffffffffffffffff16815260200190815260200160002060008373ffffffffffffffffffffffffffffffffffffffff1673ffffffffffffffffffffffffffffffffffffffff16815260200190815260200160002060009054906101000a900460ff16905092915050565b60007f01ffc9a7000000000000000000000000000000000000000000000000000000007bffffffffffffffffffffffffffffffffffffffffffffffffffffffff1916827bffffffffffffffffffffffffffffffffffffffffffffffffffffffff1916149050919050565b60008073ffffffffffffffffffffffffffffffffffffffff166002600084815260200190815260200160002060009054906101000a900473ffffffffffffffffffffffffffffffffffffffff1673ffffffffffffffffffffffffffffffffffffffff1614159050919050565b600033905090565b816004600083815260200190815260200160002060006101000a81548173ffffffffffffffffffffffffffffffffffffffff021916908373ffffffffffffffffffffffffffffffffffffffff160217905550808273ffffffffffffffffffffffffffffffffffffffff16610e8083610849565b73ffffffffffffffffffffffffffffffffffffffff167f8c5be1e5ebec7d5bd14f71427d1e84f3dd0314c0f7b2291e5b200ac8c7c3b92560405160405180910390a45050565b6000610ed182610d99565b610f10576040517f08c379a0000000000000000000000000000000000000000000000000000000008152600401610f0790612a10565b60405180910390fd5b6000610f1b83610849565b90508073ffffffffffffffffffffffffffffffffffffffff168473ffffffffffffffffffffffffffffffffffffffff161480610f8a57508373ffffffffffffffffffffffffffffffffffffffff16610f7284610506565b73ffffffffffffffffffffffffffffffffffffffff16145b80610f9b5750610f9a8185610c9b565b5b91505092915050565b8273ffffffffffffffffffffffffffffffffffffffff16610fc482610849565b73ffffffffffffffffffffffffffffffffffffffff161461101a576040517f08c379a000000000000000000000000000000000000000000000000000000000815260040161101190612aa2565b60405180910390fd5b600073ffffffffffffffffffffffffffffffffffffffff168273ffffffffffffffffffffffffffffffffffffffff16141561108a576040517f08c379a000000000000000000000000000000000000000000000000000000000815260040161108190612b34565b60405180910390fd5b611095838383611692565b6110a0600082610e0d565b6001600360008573ffffffffffffffffffffffffffffffffffffffff1673ffffffffffffffffffffffffffffffffffffffff16815260200190815260200160002060008282546110f09190612b54565b925050819055506001600360008473ffffffffffffffffffffffffffffffffffffffff1673ffffffffffffffffffffffffffffffffffffffff168152602001908152602001600020600082825461114791906128b6565b92505081905550816002600083815260200190815260200160002060006101000a81548173ffffffffffffffffffffffffffffffffffffffff021916908373ffffffffffffffffffffffffffffffffffffffff160217905550808273ffffffffffffffffffffffffffffffffffffffff168473ffffffffffffffffffffffffffffffffffffffff167fddf252ad1be2c89b69c2b068fc378daa952ba7f163c4a11628f55a4df523b3ef60405160405180910390a4505050565b606060008251141561122357604051806020016040528060008152509050611374565b60006040518060600160405280604081526020016130c9604091399050600060036002855161125291906128b6565b61125c9190612bb7565b60046112689190612be8565b9050600060208261127991906128b6565b67ffffffffffffffff81111561129257611291611f71565b5b6040519080825280601f01601f1916602001820160405280156112c45781602001600182028036833780820191505090505b509050818152600183018586518101602084015b81831015611333576003830192508251603f8160121c168501518253600182019150603f81600c1c168501518253600182019150603f8160061c168501518253600182019150603f81168501518253600182019150506112d8565b60038951066001811461134d576002811461135d57611368565b613d3d60f01b6002830352611368565b603d60f81b60018303525b50505050508093505050505b919050565b8173ffffffffffffffffffffffffffffffffffffffff168373ffffffffffffffffffffffffffffffffffffffff1614156113e8576040517f08c379a00000000000000000000000000000000000000000000000000000000081526004016113df90612c8e565b60405180910390fd5b80600560008573ffffffffffffffffffffffffffffffffffffffff1673ffffffffffffffffffffffffffffffffffffffff16815260200190815260200160002060008473ffffffffffffffffffffffffffffffffffffffff1673ffffffffffffffffffffffffffffffffffffffff16815260200190815260200160002060006101000a81548160ff0219169083151502179055508173ffffffffffffffffffffffffffffffffffffffff168373ffffffffffffffffffffffffffffffffffffffff167f17307eab39ab6107e8899845ad3d59bd9653f200f220920489ca2b5937696c31836040516114d99190611d13565b60405180910390a3505050565b611500828260405180602001604052806000815250611697565b5050565b61150d82610d99565b61154c576040517f08c379a000000000000000000000000000000000000000000000000000000000815260040161154390612d20565b60405180910390fd5b80600660008481526020019081526020016000209080519060200190611573929190611bbc565b505050565b611583848484610fa4565b61158f848484846116f2565b6115ce576040517f08c379a00000000000000000000000000000000000000000000000000000000081526004016115c590612db2565b60405180910390fd5b50505050565b606060405180602001604052806000815250905090565b60606115f682610d99565b611635576040517f08c379a000000000000000000000000000000000000000000000000000000000815260040161162c90612e44565b60405180910390fd5b600061163f6115d4565b9050600081511161165f576040518060200160405280600081525061168a565b806116698461187a565b60405160200161167a929190612608565b6040516020818303038152906040525b915050919050565b505050565b6116a183836119db565b6116ae60008484846116f2565b6116ed576040517f08c379a00000000000000000000000000000000000000000000000000000000081526004016116e490612db2565b60405180910390fd5b505050565b60006117138473ffffffffffffffffffffffffffffffffffffffff16611ba9565b1561186d578373ffffffffffffffffffffffffffffffffffffffff1663150b7a0261173c610e05565b8786866040518563ffffffff1660e01b815260040161175e9493929190612eb9565b6020604051808303816000875af192505050801561179a57506040513d601f19601f820116820180604052508101906117979190612f1a565b60015b61181d573d80600081146117ca576040519150601f19603f3d011682016040523d82523d6000602084013e6117cf565b606091505b50600081511415611815576040517f08c379a000000000000000000000000000000000000000000000000000000000815260040161180c90612db2565b60405180910390fd5b805181602001fd5b63150b7a0260e01b7bffffffffffffffffffffffffffffffffffffffffffffffffffffffff1916817bffffffffffffffffffffffffffffffffffffffffffffffffffffffff191614915050611872565b600190505b949350505050565b606060008214156118c2576040518060400160405280600181526020017f300000000000000000000000000000000000000000000000000000000000000081525090506119d6565b600082905060005b600082146118f45780806118dd90612f47565b915050600a826118ed9190612bb7565b91506118ca565b60008167ffffffffffffffff8111156119105761190f611f71565b5b6040519080825280601f01601f1916602001820160405280156119425781602001600182028036833780820191505090505b5090505b600085146119cf5760018261195b9190612b54565b9150600a8561196a9190612f90565b603061197691906128b6565b60f81b81838151811061198c5761198b612fc1565b5b60200101907effffffffffffffffffffffffffffffffffffffffffffffffffffffffffffff1916908160001a905350600a856119c89190612bb7565b9450611946565b8093505050505b919050565b600073ffffffffffffffffffffffffffffffffffffffff168273ffffffffffffffffffffffffffffffffffffffff161415611a4b576040517f08c379a0000000000000000000000000000000000000000000000000000000008152600401611a429061303c565b60405180910390fd5b611a5481610d99565b15611a94576040517f08c379a0000000000000000000000000000000000000000000000000000000008152600401611a8b906130a8565b60405180910390fd5b611aa060008383611692565b6001600360008473ffffffffffffffffffffffffffffffffffffffff1673ffffffffffffffffffffffffffffffffffffffff1681526020019081526020016000206000828254611af091906128b6565b92505081905550816002600083815260200190815260200160002060006101000a81548173ffffffffffffffffffffffffffffffffffffffff021916908373ffffffffffffffffffffffffffffffffffffffff160217905550808273ffffffffffffffffffffffffffffffffffffffff16600073ffffffffffffffffffffffffffffffffffffffff167fddf252ad1be2c89b69c2b068fc378daa952ba7f163c4a11628f55a4df523b3ef60405160405180910390a45050565b600080823b905060008111915050919050565b828054611bc89061233b565b90600052602060002090601f016020900481019282611bea5760008555611c31565b82601f10611c0357805160ff1916838001178555611c31565b82800160010185558215611c31579182015b82811115611c30578251825591602001919060010190611c15565b5b509050611c3e9190611c42565b5090565b5b80821115611c5b576000816000905550600101611c43565b5090565b6000604051905090565b600080fd5b600080fd5b60007fffffffff0000000000000000000000000000000000000000000000000000000082169050919050565b611ca881611c73565b8114611cb357600080fd5b50565b600081359050611cc581611c9f565b92915050565b600060208284031215611ce157611ce0611c69565b5b6000611cef84828501611cb6565b91505092915050565b60008115159050919050565b611d0d81611cf8565b82525050565b6000602082019050611d286000830184611d04565b92915050565b600081519050919050565b600082825260208201905092915050565b60005b83811015611d68578082015181840152602081019050611d4d565b83811115611d77576000848401525b50505050565b6000601f19601f8301169050919050565b6000611d9982611d2e565b611da38185611d39565b9350611db3818560208601611d4a565b611dbc81611d7d565b840191505092915050565b60006020820190508181036000830152611de18184611d8e565b905092915050565b6000819050919050565b611dfc81611de9565b8114611e0757600080fd5b50565b600081359050611e1981611df3565b92915050565b600060208284031215611e3557611e34611c69565b5b6000611e4384828501611e0a565b91505092915050565b600073ffffffffffffffffffffffffffffffffffffffff82169050919050565b6000611e7782611e4c565b9050919050565b611e8781611e6c565b82525050565b6000602082019050611ea26000830184611e7e565b92915050565b611eb181611e6c565b8114611ebc57600080fd5b50565b600081359050611ece81611ea8565b92915050565b60008060408385031215611eeb57611eea611c69565b5b6000611ef985828601611ebf565b9250506020611f0a85828601611e0a565b9150509250929050565b600080600060608486031215611f2d57611f2c611c69565b5b6000611f3b86828701611ebf565b9350506020611f4c86828701611ebf565b9250506040611f5d86828701611e0a565b9150509250925092565b600080fd5b600080fd5b7f4e487b7100000000000000000000000000000000000000000000000000000000600052604160045260246000fd5b611fa982611d7d565b810181811067ffffffffffffffff82111715611fc857611fc7611f71565b5b80604052505050565b6000611fdb611c5f565b9050611fe78282611fa0565b919050565b600067ffffffffffffffff82111561200757612006611f71565b5b61201082611d7d565b9050602081019050919050565b82818337600083830152505050565b600061203f61203a84611fec565b611fd1565b90508281526020810184848401111561205b5761205a611f6c565b5b61206684828561201d565b509392505050565b600082601f83011261208357612082611f67565b5b813561209384826020860161202c565b91505092915050565b6000602082840312156120b2576120b1611c69565b5b600082013567ffffffffffffffff8111156120d0576120cf611c6e565b5b6120dc8482850161206e565b91505092915050565b6000602082840312156120fb576120fa611c69565b5b600061210984828501611ebf565b91505092915050565b61211b81611de9565b82525050565b60006020820190506121366000830184612112565b92915050565b61214581611cf8565b811461215057600080fd5b50565b6000813590506121628161213c565b92915050565b6000806040838503121561217f5761217e611c69565b5b600061218d85828601611ebf565b925050602061219e85828601612153565b9150509250929050565b600067ffffffffffffffff8211156121c3576121c2611f71565b5b6121cc82611d7d565b9050602081019050919050565b60006121ec6121e7846121a8565b611fd1565b90508281526020810184848401111561220857612207611f6c565b5b61221384828561201d565b509392505050565b600082601f8301126122305761222f611f67565b5b81356122408482602086016121d9565b91505092915050565b6000806000806080858703121561226357612262611c69565b5b600061227187828801611ebf565b945050602061228287828801611ebf565b935050604061229387828801611e0a565b925050606085013567ffffffffffffffff8111156122b4576122b3611c6e565b5b6122c08782880161221b565b91505092959194509250565b600080604083850312156122e3576122e2611c69565b5b60006122f185828601611ebf565b925050602061230285828601611ebf565b9150509250929050565b7f4e487b7100000000000000000000000000000000000000000000000000000000600052602260045260246000fd5b6000600282049050600182168061235357607f821691505b602082108114156123675761236661230c565b5b50919050565b7f4552433732313a20617070726f76656420717565727920666f72206e6f6e657860008201527f697374656e7420746f6b656e0000000000000000000000000000000000000000602082015250565b60006123c9602c83611d39565b91506123d48261236d565b604082019050919050565b600060208201905081810360008301526123f8816123bc565b9050919050565b7f4552433732313a20617070726f76616c20746f2063757272656e74206f776e6560008201527f7200000000000000000000000000000000000000000000000000000000000000602082015250565b600061245b602183611d39565b9150612466826123ff565b604082019050919050565b6000602082019050818103600083015261248a8161244e565b9050919050565b7f4552433732313a20617070726f76652063616c6c6572206973206e6f74206f7760008201527f6e6572206e6f7220617070726f76656420666f7220616c6c0000000000000000602082015250565b60006124ed603883611d39565b91506124f882612491565b604082019050919050565b6000602082019050818103600083015261251c816124e0565b9050919050565b7f4552433732313a207472616e736665722063616c6c6572206973206e6f74206f60008201527f776e6572206e6f7220617070726f766564000000000000000000000000000000602082015250565b600061257f603183611d39565b915061258a82612523565b604082019050919050565b600060208201905081810360008301526125ae81612572565b9050919050565b600081905092915050565b60006125cb82611d2e565b6125d581856125b5565b93506125e5818560208601611d4a565b80840191505092915050565b60006125fd82846125c0565b915081905092915050565b600061261482856125c0565b915061262082846125c0565b91508190509392505050565b7f7b226e616d65223a2022535647204e4654222c20226465736372697074696f6e60008201527f223a2022414e204e46542066726f6d20616e20535647222c202261747472696260208201527f75746573223a22616e7920637573746f6d2061747472696275746573222c202260408201527f696d616765223a20220000000000000000000000000000000000000000000000606082015250565b60006126d46069836125b5565b91506126df8261262c565b606982019050919050565b7f227d000000000000000000000000000000000000000000000000000000000000600082015250565b60006127206002836125b5565b915061272b826126ea565b600282019050919050565b6000612741826126c7565b915061274d82846125c0565b915061275882612713565b915081905092915050565b7f4552433732313a206f776e657220717565727920666f72206e6f6e657869737460008201527f656e7420746f6b656e0000000000000000000000000000000000000000000000602082015250565b60006127bf602983611d39565b91506127ca82612763565b604082019050919050565b600060208201905081810360008301526127ee816127b2565b9050919050565b7f4552433732313a2062616c616e636520717565727920666f7220746865207a6560008201527f726f206164647265737300000000000000000000000000000000000000000000602082015250565b6000612851602a83611d39565b915061285c826127f5565b604082019050919050565b6000602082019050818103600083015261288081612844565b9050919050565b7f4e487b7100000000000000000000000000000000000000000000000000000000600052601160045260246000fd5b60006128c182611de9565b91506128cc83611de9565b9250827fffffffffffffffffffffffffffffffffffffffffffffffffffffffffffffffff0382111561290157612900612887565b5b828201905092915050565b7f45524337323155524953746f726167653a2055524920717565727920666f722060008201527f6e6f6e6578697374656e7420746f6b656e000000000000000000000000000000602082015250565b6000612968603183611d39565b91506129738261290c565b604082019050919050565b600060208201905081810360008301526129978161295b565b9050919050565b7f4552433732313a206f70657261746f7220717565727920666f72206e6f6e657860008201527f697374656e7420746f6b656e0000000000000000000000000000000000000000602082015250565b60006129fa602c83611d39565b9150612a058261299e565b604082019050919050565b60006020820190508181036000830152612a29816129ed565b9050919050565b7f4552433732313a207472616e73666572206f6620746f6b656e2074686174206960008201527f73206e6f74206f776e0000000000000000000000000000000000000000000000602082015250565b6000612a8c602983611d39565b9150612a9782612a30565b604082019050919050565b60006020820190508181036000830152612abb81612a7f565b9050919050565b7f4552433732313a207472616e7366657220746f20746865207a65726f2061646460008201527f7265737300000000000000000000000000000000000000000000000000000000602082015250565b6000612b1e602483611d39565b9150612b2982612ac2565b604082019050919050565b60006020820190508181036000830152612b4d81612b11565b9050919050565b6000612b5f82611de9565b9150612b6a83611de9565b925082821015612b7d57612b7c612887565b5b828203905092915050565b7f4e487b7100000000000000000000000000000000000000000000000000000000600052601260045260246000fd5b6000612bc282611de9565b9150612bcd83611de9565b925082612bdd57612bdc612b88565b5b828204905092915050565b6000612bf382611de9565b9150612bfe83611de9565b9250817fffffffffffffffffffffffffffffffffffffffffffffffffffffffffffffffff0483118215151615612c3757612c36612887565b5b828202905092915050565b7f4552433732313a20617070726f766520746f2063616c6c657200000000000000600082015250565b6000612c78601983611d39565b9150612c8382612c42565b602082019050919050565b60006020820190508181036000830152612ca781612c6b565b9050919050565b7f45524337323155524953746f726167653a2055524920736574206f66206e6f6e60008201527f6578697374656e7420746f6b656e000000000000000000000000000000000000602082015250565b6000612d0a602e83611d39565b9150612d1582612cae565b604082019050919050565b60006020820190508181036000830152612d3981612cfd565b9050919050565b7f4552433732313a207472616e7366657220746f206e6f6e20455243373231526560008201527f63656976657220696d706c656d656e7465720000000000000000000000000000602082015250565b6000612d9c603283611d39565b9150612da782612d40565b604082019050919050565b60006020820190508181036000830152612dcb81612d8f565b9050919050565b7f4552433732314d657461646174613a2055524920717565727920666f72206e6f60008201527f6e6578697374656e7420746f6b656e0000000000000000000000000000000000602082015250565b6000612e2e602f83611d39565b9150612e3982612dd2565b604082019050919050565b60006020820190508181036000830152612e5d81612e21565b9050919050565b600081519050919050565b600082825260208201905092915050565b6000612e8b82612e64565b612e958185612e6f565b9350612ea5818560208601611d4a565b612eae81611d7d565b840191505092915050565b6000608082019050612ece6000830187611e7e565b612edb6020830186611e7e565b612ee86040830185612112565b8181036060830152612efa8184612e80565b905095945050505050565b600081519050612f1481611c9f565b92915050565b600060208284031215612f3057612f2f611c69565b5b6000612f3e84828501612f05565b91505092915050565b6000612f5282611de9565b91507fffffffffffffffffffffffffffffffffffffffffffffffffffffffffffffffff821415612f8557612f84612887565b5b600182019050919050565b6000612f9b82611de9565b9150612fa683611de9565b925082612fb657612fb5612b88565b5b828206905092915050565b7f4e487b7100000000000000000000000000000000000000000000000000000000600052603260045260246000fd5b7f4552433732313a206d696e7420746f20746865207a65726f2061646472657373600082015250565b6000613026602083611d39565b915061303182612ff0565b602082019050919050565b6000602082019050818103600083015261305581613019565b9050919050565b7f4552433732313a20746f6b656e20616c7265616479206d696e74656400000000600082015250565b6000613092601c83611d39565b915061309d8261305c565b602082019050919050565b600060208201905081810360008301526130c181613085565b905091905056fe4142434445464748494a4b4c4d4e4f505152535455565758595a6162636465666768696a6b6c6d6e6f707172737475767778797a303132333435363738392b2fa2646970667358221220dc54fa61da03ed6557b61ff3536b24fcd4a49f8dbf059b2d4e9dcdba37b8e84464736f6c634300080b0033",
  "devdoc": {
    "kind": "dev",
    "methods": {
      "approve(address,uint256)": {
        "details": "See {IERC721-approve}."
      },
      "balanceOf(address)": {
        "details": "See {IERC721-balanceOf}."
      },
      "getApproved(uint256)": {
        "details": "See {IERC721-getApproved}."
      },
      "isApprovedForAll(address,address)": {
        "details": "See {IERC721-isApprovedForAll}."
      },
      "name()": {
        "details": "See {IERC721Metadata-name}."
      },
      "ownerOf(uint256)": {
        "details": "See {IERC721-ownerOf}."
      },
      "safeTransferFrom(address,address,uint256)": {
        "details": "See {IERC721-safeTransferFrom}."
      },
      "safeTransferFrom(address,address,uint256,bytes)": {
        "details": "See {IERC721-safeTransferFrom}."
      },
      "setApprovalForAll(address,bool)": {
        "details": "See {IERC721-setApprovalForAll}."
      },
      "supportsInterface(bytes4)": {
        "details": "See {IERC165-supportsInterface}."
      },
      "symbol()": {
        "details": "See {IERC721Metadata-symbol}."
      },
      "tokenURI(uint256)": {
        "details": "See {IERC721Metadata-tokenURI}."
      },
      "transferFrom(address,address,uint256)": {
        "details": "See {IERC721-transferFrom}."
      }
    },
    "version": 1
  },
  "userdoc": {
    "kind": "user",
    "methods": {},
    "version": 1
  },
  "storageLayout": {
    "storage": [
      {
        "astId": 25,
        "contract": "contracts/SVGNFT.sol:SVGNFT",
        "label": "_name",
        "offset": 0,
        "slot": "0",
        "type": "t_string_storage"
      },
      {
        "astId": 27,
        "contract": "contracts/SVGNFT.sol:SVGNFT",
        "label": "_symbol",
        "offset": 0,
        "slot": "1",
        "type": "t_string_storage"
      },
      {
        "astId": 31,
        "contract": "contracts/SVGNFT.sol:SVGNFT",
        "label": "_owners",
        "offset": 0,
        "slot": "2",
        "type": "t_mapping(t_uint256,t_address)"
      },
      {
        "astId": 35,
        "contract": "contracts/SVGNFT.sol:SVGNFT",
        "label": "_balances",
        "offset": 0,
        "slot": "3",
        "type": "t_mapping(t_address,t_uint256)"
      },
      {
        "astId": 39,
        "contract": "contracts/SVGNFT.sol:SVGNFT",
        "label": "_tokenApprovals",
        "offset": 0,
        "slot": "4",
        "type": "t_mapping(t_uint256,t_address)"
      },
      {
        "astId": 45,
        "contract": "contracts/SVGNFT.sol:SVGNFT",
        "label": "_operatorApprovals",
        "offset": 0,
        "slot": "5",
        "type": "t_mapping(t_address,t_mapping(t_address,t_bool))"
      },
      {
        "astId": 977,
        "contract": "contracts/SVGNFT.sol:SVGNFT",
        "label": "_tokenURIs",
        "offset": 0,
        "slot": "6",
        "type": "t_mapping(t_uint256,t_string_storage)"
      },
      {
        "astId": 1800,
        "contract": "contracts/SVGNFT.sol:SVGNFT",
        "label": "tokenCounter",
        "offset": 0,
        "slot": "7",
        "type": "t_uint256"
      }
    ],
    "types": {
      "t_address": {
        "encoding": "inplace",
        "label": "address",
        "numberOfBytes": "20"
      },
      "t_bool": {
        "encoding": "inplace",
        "label": "bool",
        "numberOfBytes": "1"
      },
      "t_mapping(t_address,t_bool)": {
        "encoding": "mapping",
        "key": "t_address",
        "label": "mapping(address => bool)",
        "numberOfBytes": "32",
        "value": "t_bool"
      },
      "t_mapping(t_address,t_mapping(t_address,t_bool))": {
        "encoding": "mapping",
        "key": "t_address",
        "label": "mapping(address => mapping(address => bool))",
        "numberOfBytes": "32",
        "value": "t_mapping(t_address,t_bool)"
      },
      "t_mapping(t_address,t_uint256)": {
        "encoding": "mapping",
        "key": "t_address",
        "label": "mapping(address => uint256)",
        "numberOfBytes": "32",
        "value": "t_uint256"
      },
      "t_mapping(t_uint256,t_address)": {
        "encoding": "mapping",
        "key": "t_uint256",
        "label": "mapping(uint256 => address)",
        "numberOfBytes": "32",
        "value": "t_address"
      },
      "t_mapping(t_uint256,t_string_storage)": {
        "encoding": "mapping",
        "key": "t_uint256",
        "label": "mapping(uint256 => string)",
        "numberOfBytes": "32",
        "value": "t_string_storage"
      },
      "t_string_storage": {
        "encoding": "bytes",
        "label": "string",
        "numberOfBytes": "32"
      },
      "t_uint256": {
        "encoding": "inplace",
        "label": "uint256",
        "numberOfBytes": "32"
      }
    }
  }
}